:020000040800F2
:10000000C0A60120357F0208DD7B0208DF7B0208E5
:10001000E17B0208E37B0208E57B020800000000A8
:10002000000000000000000000000000D1F5000802
:10003000E77B02080000000075F50008E97B020874
:100040009D800208A1800208A5800208A9800208FC
:10005000AD800208B1800208B5800208B9800208AC
:10006000BD800208C1800208C5800208C98002085C
:10007000CD800208D1800208D5800208D98002080C
:10008000DD800208E1800208E5800208E9800208BC
:10009000ED800208F1800208F5800208F98002086C
:1000A000FD80020801810208058102080981020819
:1000B0000D810208118102081581020819810208C8
:1000C0001D81020821810208258102082981020878
:1000D0002D81020831810208358102083981020828
:1000E0003D810208418102084581020849810208D8
:1000F0004D81020851810208558102085981020888
:100100005D81020861810208658102086981020837
:100110006D81020871810208C1040108758102081D
:10012000ED7B0208798102087D8102088181020845
:1001300085810208898102088D8102089181020867
:1001400095810208998102089D810208A181020817
:10015000F17B0208A5810208A9810208AD8102088D
:10016000B1810208B5810208B9810208BD81020887
:10017000C1810208C5810208C9810208000000008F
:10018000CD810208D1810208D5810208D9810208F7
:10019000DD810208E1810208E5810208E9810208A7
:1001A000ED810208F1810208F5810208F981020857
:1001B000FD81020801820208058202080982020804
:1001C0000D820208118202082BAB0008158202087A
:1001D000198202081D820208218202082582020873
:1001E000298202082D820208318202083582020823
:1001F000398202083D8202087955020821720208FC
:100200006D800208097D0208000000000000000067
:10021000202001011C020008190F1400A000FF009B
:1002200028020008CC2100080808010088210008E5
:1002300008080100682100080F0F020028210008AB
:100240000F0F0200E82000080F0F0200A82000088E
:100250000F0F02006820000807070100482000086F
:100260000F0F02000820000809090200C81F00083B
:1002700014140300681F00080A0A0200281F00085F
:100280000F0F0200E81E000810100200A81E000850
:1002900009090200681E000814140300081E000863
:1002A0000F0F0200C81D00080B0B0200881D00087C
:1002B0000F0F0200481D000809090200081D000870
:1002C00009090200C81C000809090200881C00086E
:1002D00010100200481C00080F0F0200081C000844
:1002E00008080100E81B000809090200A81B000813
:1002F00009090200681B00080A0A0200281B0008FE
:100300000F0F0200E81A000817170300881A0008E8
:1003100017170300281A000817170300C819000848
:1003200011110300681900081313030008190008CD
:1003300013130300A818000813130300481800083B
:1003400013130300E81700081313030088170008AD
:1003500013130300281700081B1B0400A81600082D
:10036000141403004816000812120300E8150008D0
:100370001212030088150008121203002815000845
:1003800012120300C814000808080100A81400088D
:100390000808010088140008080801006814000813
:1003A000080801004814000814140300E8130008AA
:1003B00014140300881300081515030028130008FF
:1003C00015150300C812000815150300681200086F
:1003D000151503000812000815150300A8110008E0
:1003E000101002006811000815150300081100081C
:1003F00014140300A8100008141403004810000887
:1004000014140300E80F000814140300880F0008F8
:1004100012120300280F000812120300C80E000871
:1004200011110300680E00080F0F0200280E0008CB
:100430000F0F0200E80D00080F0F0200A80D0008C2
:100440000F0F0200680D00080F0F0200280D0008B2
:100450000F0F0200E80C000818180300880C0008B1
:100460000F0F0200480C00080F0F0200080C0008D4
:100470000F0F0200C80B00080F0F0200880B0008C6
:100480000F0F0200480B000808080100280B0008A5
:1004900008080100080B000808080100E80A000825
:1004A00008080100C80A000811110300680A0008C2
:1004B00011110300080A000811110300A80900081F
:1004C000111103004809000811110300E808000891
:1004D0001111030088080008111103002808000802
:1004E0000F0F0200E8070008111103008807000839
:1004F000111103002807000811110300C8060008A5
:100500001111030068060008111103000806000815
:100510000F0F0200C805000811110300680500084C
:100520000F0F020028050008000000000000000076
:10053000000000001C701C701C700000F01EF01EFB
:10054000783C783C78383C783C781C701C701EF005
:100550000EE00EE007C007C007C007800F807F00D5
:100560007F007C0000000000000000000000000090
:10057000000000000000003C00003C00003C0000C7
:100580003C00003C00003CF0003FFC003FFE003E11
:100590001E003E1F003C0F003C0F003C0F003C0FB4
:1005A000003C0F003E1F003F1E003FFE003DFC00D0
:1005B0003CF0003C00003C00003C00003C00003CE3
:1005C000000000000000000000000000000000002B
:1005D000000000F001E001C003800000F01EF01EEA
:1005E000783C783C78383C783C781C701C701EF065
:1005F0000EE00EE007C007C007C007800F807F0035
:100600007F007C00000000000000000000000000EF
:10061000000000000000000000000E38000E38004E
:100620000E38000000003C1E003C1E003C1E003C3A
:100630001E003C1E003C1E003C1E003C1E003C1EDA
:10064000003C1E003C1E003E3E003FFE001FFE0020
:100650000F9E0000000000000000000000000000ED
:10066000000000000000000000000000000000008A
:100670000000000000000001C00003E0000770005F
:100680000E38000000003C1E003C1E003C1E003CDA
:100690001E003C1E003C1E003C1E003C1E003C1E7A
:1006A000003C1E003C1E003E3E003FFE001FFE00C0
:1006B0000F9E00000000000000000000000000008D
:1006C000000000000000000000000000000000002A
:1006D0000000000000000000780000F00000E000D2
:1006E00001C0000000003C1E003C1E003C1E003CFF
:1006F0001E003C1E003C1E003C1E003C1E003C1E1A
:10070000003C1E003C1E003E3E003FFE001FFE005F
:100710000F9E00000000000000000000000000002C
:1007200000000000000000000000000000000000C9
:100730000000000000000007800003C00001C000AE
:1007400000E0000000003C1E003C1E003C1E003C7F
:100750001E003C1E003C1E003C1E003C1E003C1EB9
:10076000003C1E003C1E003E3E003FFE001FFE00FF
:100770000F9E0000000000000000000000000000CC
:100780000000000000000000000000000000000069
:100790000000000000000000000000000000000059
:1007A00000000000020003E3000FF6001FFC003E03
:1007B0003C003C3E00786F0078CF00788F00798F46
:1007C000007B0F007E1E003E3E001FFC003FF80035
:1007D00067E00020000000000000000000000000B2
:1007E0000000000000000000000000000000000009
:1007F00000000000000007800780078007800000DD
:100800000000FFFCFFFCFFFCFFFC00000000078075
:100810000780078007800000000000000000000043
:1008200000000000000000000000000000000000C8
:10083000000000000000000000000E38000E38002C
:100840000E380000000003E0000FF8001FFC003E1F
:100850003E003C1E00780F00780F00780F00780FE4
:1008600000780F003C1E003E3E001FFC000FF80009
:1008700003E0000000000000000000000000000095
:100880000000000000000000000000000000000068
:10089000000000000000000000000718000FF80032
:1008A0000C700000000003E0000FF8001FFC003E89
:1008B0003E003C1E00780F00780F00780F00780F84
:1008C00000780F003C1E003E3E001FFC000FF800A9
:1008D00003E0000000000000000000000000000035
:1008E0000000000000000000000000000000000008
:1008F0000000000000000001C00003E000077000DD
:100900000E380000000003E0000FF8001FFC003E5E
:100910003E003C1E00780F00780F00780F00780F23
:1009200000780F003C1E003E3E001FFC000FF80048
:1009300003E00000000000000000000000000000D4
:1009400000000000000000000000000000000000A7
:100950000000000000000000780000F00000E0004F
:1009600001C00000000003E0000FF8001FFC003E83
:100970003E003C1E00780F00780F00780F00780FC3
:1009800000780F003C1E003E3E001FFC000FF800E8
:1009900003E0000000000000000000000000000074
:1009A0000000000000000000000000000000000047
:1009B0000000000000000007800003C00001C0002C
:1009C00000E00000000003E0000FF8001FFC003E04
:1009D0003E003C1E00780F00780F00780F00780F63
:1009E00000780F003C1E003E3E001FFC000FF80088
:1009F00003E0000000000000000000000000000014
:100A000000000000000000000000000000000000E6
:100A1000000000000000000000000718000FF800B0
:100A20000C70000000003CF8003DFC003FFE003E62
:100A30003E003C1E003C1E003C1E003C1E003C1EB6
:100A4000003C1E003C1E003C1E003C1E003C1E00E4
:100A50003C1E00000000000000000000000000003C
:100A60000000000000000000000000000000000086
:100A70000000000000000007980001E00001F00005
:100A800006780000780007BC001FFE001FFE003E35
:100A90003E007C1F00780F00780F00780F00780F61
:100AA00000780F003C1E003E3E001FFC000FF800C7
:100AB00003E0000000000000000000000000000053
:100AC0000000000000000000000000000000E3E360
:100AD000E3003C3C3C3C3C3C3C3C3C3C3C3C3C3CEB
:100AE0003C0000000000000000000000001C3E77F9
:100AF000E3003C3C3C3C3C3C3C3C3C3C3C3C3C3CCB
:100B00003C0000000000000000000000001E3C3817
:100B100070003C3C3C3C3C3C3C3C3C3C3C3C3C3C1D
:100B20003C000000000000000000000000783C1CB9
:100B30000E003C3C3C3C3C3C3C3C3C3C3C3C3C3C5F
:100B40003C00000000000000000000000000000069
:100B5000000000001C701C701C70000007C01FF01B
:100B60003FF83C787838783C7FFC7FFC7FFC78004D
:100B700078003C303FFC1FF807E000000000000058
:100B80000000000000000000000000000000000065
:100B90000000038007C00EE01C70000007C01FF0BB
:100BA0003FF83C787838783C7FFC7FFC7FFC78000D
:100BB00078003C303FFC1FF807E000000000000018
:100BC0000000000000000000000000000000000025
:100BD000000001E003C003800700000007C01FF011
:100BE0003FF83C787838783C7FFC7FFC7FFC7800CD
:100BF00078003C303FFC1FF807E0000000000000D8
:100C000000000000000000000000000000000000E4
:100C100000000F000780038001C0000007C01FF024
:100C20003FF83C787838783C7FFC7FFC7FFC78008C
:100C300078003C303FFC1FF807E000000000000097
:100C400000000000000000000000000000000000A4
:100C500000000000000000000000000007E01FF09E
:100C60003FF83C7C78307800780078007800780095
:100C700078303C7C3FF81FF807E007C000E000E058
:100C800000E00F80000000000000000000000000F5
:100C90000000000000000000000000000000000054
:100CA00000000000000007E3E01FFFF83FFFF838F6
:100CB0007E3C703C1C003C1E00FFFE0FFFFE3F3FD1
:100CC000FE783C00783C007C7E187FFFFE3FEFFC06
:100CD0001F83F00000000000000000000000000082
:100CE0000000000000000000000000000000000004
:100CF0000000030004800480030000000FE01FF0E8
:100D00003FF878F87078007801F81FF83E78787826
:100D1000787878F87FF83FB81F3C000000000000AA
:100D200000000000000000000000000000000000C3
:100D3000000000001C701C701C7000000FE01FF011
:100D40003FF878F87078007801F81FF83E787878E6
:100D5000787878F87FF83FB81F3C0000000000006A
:100D60000000000000000000000000000000000083
:100D7000000000000E301FF018E000000FE01FF030
:100D80003FF878F87078007801F81FF83E787878A6
:100D9000787878F87FF83FB81F3C0000000000002A
:100DA0000000000000000000000000000000000043
:100DB0000000038007C00EE01C7000000FE01FF071
:100DC0003FF878F87078007801F81FF83E78787866
:100DD000787878F87FF83FB81F3C000000000000EA
:100DE0000000000000000000000000000000000003
:100DF000000001E003C00380070000000FE01FF0C7
:100E00003FF878F87078007801F81FF83E78787825
:100E1000787878F87FF83FB81F3C000000000000A9
:100E200000000000000000000000000000000000C2
:100E300000001E000F000700038000000FE01FF0FD
:100E40003FF878F87078007801F81FF83E787878E5
:100E5000787878F87FF83FB81F3C00000000000069
:100E60000000000000000000000000000000000082
:100E70000000000000000007E0001FF0001FF80065
:100E80003E78003C78003C78003CF0003CE0003DBF
:100E9000E0003DE0003DF0003CFC003C7E003C3EBC
:100EA000003C0F003C0F003D8F003FFF003DFE0067
:100EB0003C7800000000000000000000000000007E
:100EC0000000000000000000000000000000000022
:100ED000000000000000001E00001E00001E0000B8
:100EE0001E00001FFC001FFE001FFF001FFF801ED2
:100EF0000F801E07801E07801E0F801FFF801FFFB0
:100F0000001FFE001FFC001E00001E00001E00004F
:100F10001E000000000000000000000000000000B3
:100F2000000000000000000000780000F00000E079
:100F30000001C000000000F003C0F807C07C0F8073
:100F40003C0F003E1F001E1E000F3C000FFC000760
:100F5000F80003F00003F00001E00001E00001E010
:100F60000001E00001E00001E00001E00001E0001C
:100F700001E0000000000000000000000000000090
:100F80000000000000000000000000038E00038E3F
:100F900000038E000000003C03C03C03C03C03C0C3
:100FA0003C03C03C03C03C03C03C03C03C03C03C0A
:100FB00003C03C03C03C03C03C03C03C03C03C0333
:100FC000C03E03C03F0FC01FFF801FFF800FFF0008
:100FD00003FC000000000000000000000000000012
:100FE000000000000000000000700000F80001DCBC
:100FF00000038E000000003C03C03C03C03C03C063
:101000003C03C03C03C03C03C03C03C03C03C03CA9
:1010100003C03C03C03C03C03C03C03C03C03C03D2
:10102000C03E03C03F0FC01FFF801FFF800FFF00A7
:1010300003FC0000000000000000000000000000B1
:101040000000000000000000003C0000780000707C
:101050000000E0000000003C03C03C03C03C03C0B3
:101060003C03C03C03C03C03C03C03C03C03C03C49
:1010700003C03C03C03C03C03C03C03C03C03C0372
:10108000C03E03C03F0FC01FFF801FFF800FFF0047
:1010900003FC000000000000000000000000000051
:1010A000000000000000000001E00000F0000070FF
:1010B000000038000000003C03C03C03C03C03C0FB
:1010C0003C03C03C03C03C03C03C03C03C03C03CE9
:1010D00003C03C03C03C03C03C03C03C03C03C0312
:1010E000C03E03C03F0FC01FFF801FFF800FFF00E7
:1010F00003FC0000000000000000000000000000F1
:1011000000000000000000000000000000000000DF
:101110000000000000002001FC3007FF780FFFF006
:101120001FFFE03F07E03C07E07C0FE0781EF0780F
:101130003CF07878F078F0F079E0F07BC0F07F81D7
:10114000F03F01E03F07E03FFFC07FFF80F7FF0077
:1011500061FC002000000000000000000000000012
:10116000000000000000000000000000000000007F
:1011700000000000000000000000101038387C7CE7
:101180003EF81FF00FE007C00FE01FF03EF87C7C38
:1011900038381010000000000000000000000000BF
:1011A0000000000000000000000000038E00038E1D
:1011B00000038E0000000001FC0007FF000FFF800D
:1011C0001FFFC03F07E03C03E07C01F07800F078AF
:1011D00000F07800F07800F07800F07800F07C0102
:1011E000F03E03E03F07E01FFFC00FFF8007FF0056
:1011F00001FC0000000000000000000000000000F2
:10120000000000000000000000000001C60003FE16
:1012100000031C0000000001FC0007FF000FFF801E
:101220001FFFC03F07E03C03E07C01F07800F0784E
:1012300000F07800F07800F07800F07800F07C01A1
:10124000F03E03E03F07E01FFFC00FFF8007FF00F5
:1012500001FC000000000000000000000000000091
:10126000000000000000000000700000F80001DC39
:1012700000038E0000000001FC0007FF000FFF804C
:101280001FFFC03F07E03C03E07C01F07800F078EE
:1012900000F07800F07800F07800F07800F07C0141
:1012A000F03E03E03F07E01FFFC00FFF8007FF0095
:1012B00001FC000000000000000000000000000031
:1012C0000000000000000000003C000078000070FA
:1012D0000000E00000000001FC0007FF000FFF809D
:1012E0001FFFC03F07E03C03E07C01F07800F0788E
:1012F00000F07800F07800F07800F07800F07C01E1
:10130000F03E03E03F07E01FFFC00FFF8007FF0034
:1013100001FC0000000000000000000000000000D0
:10132000000000000000000001E00000F00000707C
:101330000000380000000001FC0007FF000FFF80E4
:101340001FFFC03F07E03C03E07C01F07800F0782D
:1013500000F07800F07800F07800F07800F07C0180
:10136000F03E03E03F07E01FFFC00FFF8007FF00D4
:1013700001FC000000000000000000000000000070
:10138000000000000000000000000001C60003FE95
:1013900000031C000000003C03C03E03C03F03C02C
:1013A0003F03C03F83C03F83C03FC3C03DC3C03D78
:1013B000E3C03CF3C03CF3C03C7BC03C3BC03C3F83
:1013C000C03C1FC03C1FC03C0FC03C0FC03C07C00E
:1013D0003C07C0000000000000000000000000000A
:1013E00000000000000000000000000000000000FD
:1013F000000000000000003FFC003FFF003FFF80B6
:101400003FFF803C07C03C03C03C03E03C01E03CA4
:1014100001E0FFE1E0FFE1E03C01E03C01E03C01F4
:10142000E03C03C03C07C03FFF803FFF803FFF0020
:101430003FFC000000000000000000000000000071
:10144000000000000000000000E3E3E3003C3C3C3F
:101450003C3C3C3C3C3C3C3C3C3C3C3C3C3C3C3CCC
:101460003C000000000000001C3E77E3003C3C3CD8
:101470003C3C3C3C3C3C3C3C3C3C3C3C3C3C3C3CAC
:101480003C000000000000001E3C3870003C3C3C6A
:101490003C3C3C3C3C3C3C3C3C3C3C3C3C3C3C3C8C
:1014A0003C00000000000000783C1C0E003C3C3C6E
:1014B0003C3C3C3C3C3C3C3C3C3C3C3C3C3C3C3C6C
:1014C0003C00000000000000000000071C00071C9A
:1014D00000071C000000003FFF803FFF803FFF80AF
:1014E0003FFF803C00003C00003C00003C00003F0F
:1014F000FF003FFF003FFF003FFF003C00003C00BB
:10150000003C00003C00003FFF803FFF803FFF8029
:101510003FFF80000000000000000000000000000D
:10152000000000000000000000E00001F00003B82F
:1015300000071C000000003FFF803FFF803FFF804E
:101540003FFF803C00003C00003C00003C00003FAE
:10155000FF003FFF003FFF003FFF003C00003C005A
:10156000003C00003C00003FFF803FFF803FFF80C9
:101570003FFF8000000000000000000000000000AD
:10158000000000000000000000780000F00000E013
:101590000001C0000000003FFF803FFF803FFF8050
:1015A0003FFF803C00003C00003C00003C00003F4E
:1015B000FF003FFF003FFF003FFF003C00003C00FA
:1015C000003C00003C00003FFF803FFF803FFF8069
:1015D0003FFF80000000000000000000000000004D
:1015E000000000000000000003C00001E00000E077
:1015F000000070000000003FFF803FFF803FFF8041
:101600003FFF803C00003C00003C00003C00003FED
:10161000FF003FFF003FFF003FFF003C00003C0099
:10162000003C00003C00003FFF803FFF803FFF8008
:101630003FFF8000000000000000000000000000EC
:10164000000000000000000000000000000000009A
:101650000000000000000001FC0007FF000FFF80F9
:101660001FFFC03F07C03C03E07C0180780000788A
:1016700000007800007800007800007801807C038A
:10168000E03C03E03F0FC01FFFC00FFF8007FF00DB
:1016900001FC0000F800001C00001C00001C000100
:1016A000F00000000000000000000000000000004A
:1016B00000000000000000000000000000FFFFC06C
:1016C00001FFFFC001FFFFC003FFFFC003DE0000FA
:1016D00003DE0000079E0000079FFF800F1FFF80B2
:1016E0000F1FFF801F1FFF801FFE00003FFE000036
:1016F0003FFE00007FFE0000781E0000781FFFC044
:10170000F01FFFC0F01FFFC0F01FFFC0000000006F
:1017100000000000000000000000000000000000C9
:101720000000000000000000000000000000006059
:101730000000900000900001F00003F80003F800A2
:1017400003F80007BC0007BC0007BC000F1E000F19
:101750001E000F1E001E0F001E0F001FFF003FFF88
:10176000803FFF803C07807803C07803C07803C0C7
:10177000F001E00000000000000000000000000098
:101780000000000000000000000000071C00071C13
:1017900000071C0000000001F00003F80003F8003F
:1017A00003F80007BC0007BC0007BC000F1E000FB9
:1017B0001E000F1E001E0F001E0F001FFF003FFF28
:1017C000803FFF803C07807803C07803C07803C067
:1017D000F001E00000000000000000000000000038
:1017E0000000000000000000000000038C0007FC67
:1017F0000006380000000001F00003F80003F800C4
:1018000003F80007BC0007BC0007BC000F1E000F58
:101810001E000F1E001E0F001E0F001FFF003FFFC7
:10182000803FFF803C07807803C07803C07803C006
:10183000F001E000000000000000000000000000D7
:10184000000000000000000000E00001F00003B80C
:1018500000071C0000000001F00003F80003F8007E
:1018600003F80007BC0007BC0007BC000F1E000FF8
:101870001E000F1E001E0F001E0F001FFF003FFF67
:10188000803FFF803C07807803C07803C07803C0A6
:10189000F001E00000000000000000000000000077
:1018A000000000000000000000780000F00000E0F0
:1018B0000001C00000000001F00003F80003F80080
:1018C00003F80007BC0007BC0007BC000F1E000F98
:1018D0001E000F1E001E0F001E0F001FFF003FFF07
:1018E000803FFF803C07807803C07803C07803C046
:1018F000F001E00000000000000000000000000017
:10190000000000000000000003C00001E00000E053
:101910000000700000000001F00003F80003F80070
:1019200003F80007BC0007BC0007BC000F1E000F37
:101930001E000F1E001E0F001E0F001FFF003FFFA6
:10194000803FFF803C07807803C07803C07803C0E5
:10195000F001E000000000000000000000000000B6
:101960000000000000000000000000000000000077
:101970000000000000000000000000000000000067
:1019800000000000000001E00001E00001E00001B3
:10199000E00000000000000001E00001E00003E0C2
:1019A0000007C0000F80001F00003E00003C000048
:1019B0003C0F003C1F001E1E001FFE000FFC00031A
:1019C000F000000000000000000000000000000027
:1019D000000000000000003E00E07F01C0E703803F
:1019E0001E03801E0700070700070E00E71C007E8D
:1019F0001C003C380000381C00703C00E07C00E01B
:101A0000DC01C19C01C31C0383FE0703FE07001C0D
:101A10000E001C000000000000000000000000009C
:101A200000000000000000000000000000000000B6
:101A3000000000000000000E01C01E03807E038035
:101A40006E07000E07000E0E000E1C000E1C000E8E
:101A500038000E38000070F00073FC00E39C00E0DA
:101A60001C01C03803C0780380E00701C00703FCF5
:101A70000E03FC0000000000000000000000000059
:101A80000000000000000000000000000000000056
:101A9000000000000000000E01C01E01C07E038097
:101AA0006E07800E07000E0E000E0E000E1C000EBC
:101AB0001C000E380000701C00703C00E07C00E050
:101AC000DC01C19C01C31C0383FE0703FE07001C4D
:101AD0000E001C00000000000000000000000000DC
:101AE00000000000000000000000000000000000F6
:101AF00000000000000000000000000000000000E6
:101B000071C038E03CF01C701E780F3C0F3C1E7812
:101B10001C703CF038E071C00000000000000000C4
:101B200000000000000000000000000000000000B5
:101B300000001F003F807BC071C071C071C071C0C8
:101B40007BC03F801F00000000000000000000007C
:101B50000000000000000000000000000000000085
:101B60000000000000000000000000000000000075
:101B700000001C003C007C005C001C001C001C00E1
:101B80001C001C001C000000000000000000000001
:101B90000000000000000000000000000000000045
:101BA0000000000000000000000000000000000035
:101BB0000000000000000000000000000000000025
:101BC0000000000000000000000000000000000015
:101BD000000000000000000000003E0007000700B9
:101BE00007007C0000000000000000000000000072
:101BF00000000000003C3C3C3C00000000000000F5
:101C000000000000000000000000000000000000D4
:101C100000001FFC7FFC7FFCFF38FF38FF38FF38D7
:101C2000FF387F387F381F380738073807380738BC
:101C300007380738073807380738073807380738AC
:101C40000738073800000000000000000000000016
:101C50000000000000000000000000003C1E3C1ED0
:101C60003C1E3C1E3C1E3C1E3C1E3C1E3C1E3C1EA4
:101C70003C1E3E3E3FFE3FFE3DDE3C003C003C0045
:101C80003C003C00000000000000000000000000DC
:101C900000000F001E001C003800000000000000C3
:101CA0000000000000000000000000000000000034
:101CB0000000000000000000000000000000000024
:101CC0000000000000000000000000000000000014
:101CD00000001F003F8073800F000F00038003800F
:101CE00073803F001E0000000000000000000000A4
:101CF00000000000000000000000000000000000E4
:101D000000000000000000000000000000000000D3
:101D100000003C00FF00E70007000E001E00380036
:101D20007000FF00FF000000000000000000000045
:101D300000000000000000000000000000000000A3
:101D40000000000000000000000000000000000093
:101D50000000000003C003C003C003C003C07FFE37
:101D60007FFE7FFE7FFE03C003C003C003C003C02D
:101D700000007FFE7FFE7FFE7FFE0000000000006F
:101D80000000000000000000000000000000000053
:101D900000001E003F0073806180618073803F00FF
:101DA0001E00000000000000000000000000000015
:101DB0000000000000000000000000000000000023
:101DC000000000000000000000000000FFFEFFFE19
:101DD000FFFE000000000000000000000000000006
:101DE00000000000000000000000000000000000F3
:101DF00000000000000000000000000000000000E3
:101E000000000000000000000000000000000000D2
:101E10000000000000000001F80007FE001E07801F
:101E20003801C033F0C063F860631860C31830C372
:101E30001830C3F830C3F030C33030C338306318C3
:101E400060631C60330CC03801C01E078007FE00B1
:101E500001F8000000000000000000000000000089
:101E60000000000000000000000000000000000072
:101E70000000000000000000000000000000000062
:101E800000000000000000007F807F807F807F8056
:101E90000000000000000000000000000000000042
:101EA0000000000000000000000000000000000032
:101EB0000000000000000000000000007FFE7FFE28
:101EC0007FFE7FFE001E001E001E001E001E001E64
:101ED0000000000000000000000000000000000002
:101EE00000000000000000000000000000000000F2
:101EF00000000000000000000000000000000000E2
:101F0000071C0E381E781C703CF079E079E03CF03C
:101F10001C701E780E38071C000000000000000036
:101F200000000000000000000000000000000000B1
:101F300000003F007F80E38003803F80FF80E380DC
:101F4000E780FF807B8000000000000000000000B0
:101F50000000000000000000000000000000000081
:101F60000000000000000000000000000000000071
:101F70000000000000000001F80007FE001E0780BE
:101F80003801C030F0C063F860631C60C60C30C616
:101F90000030C60030C60030C60030C60C30631CAE
:101FA0006063F86030F0C03801C01E078007FE0093
:101FB00001F8000000000000000000000000000028
:101FC0000000000000000000000000000000000011
:101FD0000000E380E380E3800000000000000000D8
:101FE00000000000000000000000000000000000F1
:101FF00000000000000000000000000000000000E1
:1020000000000000000000000000000000000000D0
:10201000000007C01FE03FF03C783C783E001F0006
:102020001F803FE07BF071F8707C783C7C1C3E1C8C
:102030001F3C0FF807F003F000F800783C783E787A
:102040001FF00FF007C00000000000000038383813
:1020500038383838383838380000000038383838E0
:102060003838383838380000000000000000000020
:102070000000F03C7878787838703CF01CE01FE085
:102080001FE07FF87FF87FF8078007807FF87FF8F0
:102090007FF80780078007800780000000000000AD
:1020A0000000000000000000000000000000000030
:1020B00000000000000000000000201077B8FFFCC6
:1020C0007FF83870703870387038703838707FF832
:1020D000FFFC77B8201000000000000000000000A6
:1020E00000000000000000000000000000000000F0
:1020F00000000FC01FE03FF07CF878787878780017
:102100007800FFC0FFC0FFC03C003C003C007800EE
:102110007800FF08FFFC7FFC41F800000000000091
:1021200000000000000000000000000000000000AF
:1021300000000018003800300030007007E01FF089
:102140003FF83CF878FC78C07980798079807B3CD6
:102150007B3C3F783FF81FF00FC00C000C000C00D8
:10216000180018000000000000000000000000003F
:1021700000003C3C3C3C000018181818183C3C3C43
:102180003C3C3C3C3C3C00000000000000000000E7
:10219000000000000000000000000000000000003F
:1021A00000000000000000007955020821720208BA
:1021B0006D800208097D0208000000000000000098
:1021C00020200101CC210008190F140020007E00FE
:1021D000D821000800000000080801003040000875
:1021E00008080100104000080D0D0200D03F000853
:1021F0000F0F0200903F00080F0F0200503F000831
:1022000018180300F03E000814140300903E000864
:1022100006060100703E000809090200303E000871
:1022200009090200F03D00080B0B0200B03D000858
:1022300010100200703D000808080100503D000821
:1022400009090200103D000808080100F03C0008E0
:1022500008080100D03C00080F0F0200903C000865
:102260000F0F0200503C00080F0F0200103C000846
:102270000F0F0200D03B00080F0F0200903B000838
:102280000F0F0200503B00080F0F0200103B000828
:102290000F0F0200D03A00080F0F0200903A00081A
:1022A0000F0F0200503A00080A0A0200103A000814
:1022B0000A0A0200D0390008101002009039000804
:1022C00010100200503900081010020010390008E8
:1022D00011110300B03800081A1A04003038000841
:1022E00013130300D03700081414030070370008DC
:1022F000141403001037000814140300B03600084B
:10230000121203005036000811110300F0350008C6
:10231000151503009035000814140300303500082B
:1023200008080100103500080F0F0200D034000823
:102330001414030070340008111103001034000855
:1023400015150300B03300081414030050330008BF
:1023500015150300F0320008121203009032000835
:10236000151503003032000814140300D0310008A2
:10237000121203007031000812120300103100081D
:1023800014140300B030000812120300503000088B
:1023900019190400D02F000812120300702F000832
:1023A00012120300102F000811110300B02E0008B4
:1023B00009090200702E000808080100502E0008CC
:1023C00009090200102E000810100200D02D00088C
:1023D0000F0F0200902D000809090200502D00087F
:1023E0000F0F0200102D000811110300B02C00087F
:1023F0000F0F0200702C000811110300102C0008B0
:102400000F0F0200D02B000809090200902B0008D2
:1024100011110300302B000811110300D02A00080D
:1024200008080100B02A000808080100902A0008E6
:102430000F0F0200502A000808080100302A000887
:102440001A1A0400B02900081111030050290008CD
:1024500011110300F0280008111103009028000852
:1024600011110300302800080B0B0200F0270008B0
:102470000F0F0200B02700080909020070270008AA
:1024800011110300102700080F0F0200D0260008CA
:1024900015150300702600080F0F020030260008F3
:1024A0000F0F0200F02500080E0E0200B0250008F4
:1024B0000B0B0200702500080707010050250008DB
:1024C0000B0B02001025000810100200D024000899
:1024D00000000000000000000000000000000000FC
:1024E00000000000000000001E007FC67FFE7FFE8F
:1024F00061FE007800000000000000000000000005
:1025000000000000000000000000000000000000CB
:102510000000000000000000000078007C007E0049
:102520000E000E000E000E000E000E000E000F003A
:1025300007C003C007C00F000E000E000E000E0003
:102540000E000E000E007E007C00780000000000EF
:102550000000000000383838383838383838383813
:10256000383838383838383838383838383800005B
:102570000000000000000000000003C007C00FC002
:102580000E000E000E000E000E000E000E001E00CB
:102590007C0078007C001E000E000E000E000E0075
:1025A0000E000E000E000FC007C003C000000000A8
:1025B000000000000000000000000000000000001B
:1025C000000000007FF87FF87FF8007800F001E05D
:1025D00003C007800F001E003C0078007FF87FF8E2
:1025E0007FF8000000000000000000000000000074
:1025F00000000000000000000000000000000000DB
:1026000000000000F01EF01E783C783C78383C78E2
:102610003C781C701C701EF00EE00EE007C007C076
:1026200007C007800F807F007F007C000000000053
:10263000000000000000000000000000000000009A
:1026400000000000783C783C3C781EF01EE00FE073
:1026500007C007C007C00FE01EF01EF03C78783CB2
:10266000783C0000000000000000000000000000B6
:10267000000000000000000000000000000000005A
:102680000000000000000000000000000000F070EA
:102690007870707070707078F8F038D8E038D8E0E2
:1026A00038D8E01DDDC01D8DC01D8DC00D8D800F83
:1026B0008F800F0780070700070700000000000059
:1026C000000000000000000000000000000000000A
:1026D00000000000000000000000000000000000FA
:1026E00000000000783C783C783C38383C783C78F6
:1026F0001C701C701E700EE00EE00FE007C007C0DB
:1027000007C0000000000000000000000000000002
:1027100000000000000000000000000000000000B9
:1027200000000000000000000000000000003C1E4F
:10273000003C1E003C1E003C1E003C1E003C1E00D7
:102740003C1E003C1E003C1E003C1E003C1E003E89
:102750003E003FFE001FFE000F9E00000000000034
:102760000000000000000000000000000000000069
:102770000000000000000000000004001C003C00FD
:102780003C003C00FF80FF80FF803C003C003C00A0
:102790003C003C003C003C003C003C003F801F8073
:1027A0000F8000000000000000000000000000009A
:1027B0000000000000000000000000000000000019
:1027C000000000000FE03FF87FFC783078007E00CA
:1027D0003FC01FF007F800FC003C183C7FF83FF8B2
:1027E0000FE00000000000000000000000000000FA
:1027F00000000000000000000000000000000000D9
:10280000000000003DE03FE03FE03E003E003C00B5
:102810003C003C003C003C003C003C003C003C00D8
:102820003C0000000000000000000000000000006C
:102830000000000000000000000000000000000098
:102840000000000000000000000000000000079EE3
:10285000001FFE003FFE003C3E007C3E00781E0054
:10286000781E00781E00781E00781E007C3E003C1A
:102870007E003FFE001FFE00079E00001E00001E9F
:1028800000001E00001E00001E00000000000000EE
:102890000000000000000000000000000000000038
:1028A00000000000000000000000000000003CF8F4
:1028B000003FFC003FFE003E1E003E1F003C0F009C
:1028C0003C0F003C0F003C0F003C0F003E1F003F40
:1028D0001E003FFE003DFC003CF0003C00003C00C0
:1028E000003C00003C00003C000000000000000034
:1028F00000000000000000000000000000000000D8
:10290000000000000000000000000000000003E0E4
:10291000000FF8001FFC003E3E003C1E00780F0038
:10292000780F00780F00780F00780F003C1E003EF3
:102930003E001FFC000FF80003E000000000000054
:102940000000000000000000000000000000000087
:102950000000000000000000000000000000000077
:1029600000000000000000000000000000003CF833
:10297000003DFC003FFE003E3E003C1E003C1E00B1
:102980003C1E003C1E003C1E003C1E003C1E003C49
:102990001E003C1E003C1E003C1E0000000000000B
:1029A0000000000000000000000000000000000027
:1029B0000000000000000000000000000000000017
:1029C0000000000000000000000000000000000007
:1029D00000000000000000003CF87C003FFDFE000D
:1029E0003FFFFF003E3F1F003C1F0F003C1E0F003B
:1029F0003C1E0F003C1E0F003C1E0F003C1E0F0033
:102A00003C1E0F003C1E0F003C1E0F003C1E0F0022
:102A10003C1E0F000000000000000000000000004D
:102A200000000000000000000000000000000000A6
:102A300000000000003C3C3C3C3C3C3C3C3C3C3C02
:102A40003C3C3C3C3C3C3C3C3C000000000000006A
:102A5000000000000000000000003C003C003C00C2
:102A60003C003C003C3C3C783C703CF03DE03DC0D0
:102A70003FC03FE03FE03EF03CF03C783C783C3CDF
:102A80003C3C0000000000000000000000000000CE
:102A900000000000003C3C3C00003C3C3C3C3C3C1A
:102AA0003C3C3C3C3C3C3C3C3C3C3CFCF8F00000AE
:102AB00000000000003C3C3C00003C3C3C3C3C3CFA
:102AC0003C3C3C3C3C3C3C3C3C00000000000000EA
:102AD0000000000000000000000000000000003CBA
:102AE00000003C00003C00003C00003C00003CF8C2
:102AF000003FFC003FFE003E3E003C1E003C1E002E
:102B00003C1E003C1E003C1E003C1E003C1E003CC7
:102B10001E003C1E003C1E003C1E00000000000089
:102B200000000000000000000000000000000000A5
:102B30000000000000000000000000000000000095
:102B40000000000000000000000000000000079EE0
:102B5000001FDE003FFE003C3E007C3E00781E0071
:102B6000781E00781E00781E00781E007C3E003C17
:102B70007E003FFE001FDE000F9E00001E00603E34
:102B8000007FFC003FF8000FF00000000000000094
:102B9000000000000000000000000F801F803F8048
:102BA0003C003C00FF80FF80FF803C003C003C007C
:102BB0003C003C003C003C003C003C003C003C0035
:102BC0003C000000000000000000000000000000C9
:102BD00000000000000000000000000000000000F5
:102BE0000000000007C01FF03FF83C787838783CC0
:102BF0007FFC7FFC7FFC780078003C303FFC1FF8B6
:102C000007E00000000000000000000000000000DD
:102C100000000000000000000000000000000000B4
:102C20001E00001E00001E00001E00001E00079E69
:102C3000001FFE003FFE003C3E007C3E00781E0070
:102C4000781E00781E00781E00781E007C3E003C36
:102C50003E003FFE001FFE00079E00000000000037
:102C60000000000000000000000000000000000064
:102C70000000000000000000000000000000000054
:102C80000000000007E01FF03FF83C7C783078003F
:102C9000780078007800780078303C7C3FF81FF8A6
:102CA00007E000000000000000000000000000003D
:102CB0000000000000000000000000000000003CD8
:102CC00000003C00003C00003C00003C00003CF0E8
:102CD000003FFC003FFE003E1E003E1F003C0F0078
:102CE0003C0F003C0F003C0F003C0F003E1F003F1C
:102CF0001E003FFE003FFC003CF000000000000012
:102D000000000000000000000000000000000000C3
:102D100000000000000000000000000000000000B3
:102D2000000000000FE01FF03FF878F8707800789E
:102D300001F81FF83E787878787878F87FF83FB80F
:102D40001F3C000000000000000000000000000028
:102D500000000000000000000000F00078003800D3
:102D60001C00000000000000000000000000000047
:102D70000000000000000000000000000000000053
:102D80000000000000000000000000000000000043
:102D90000000000000000000000000000000000033
:102DA0000000000000000000000000000000000023
:102DB0000000000000000000000000000000000013
:102DC000000000000000FFFEFFFEFFFE000000000C
:102DD00000000000000000000000078007800FC016
:102DE0000FC00FC01CE01CE03CF038707878000089
:102DF00000000000000000000000000000000000D3
:102E000000000000000000000000000000000000C2
:102E100000000000000000000000FE00FE00FE00B8
:102E2000FE001E001E001E001E001E001E001E00D2
:102E30001E001E001E001E001E001E001E001E00A2
:102E40001E001E00FE00FE00FE00FE00000000004E
:102E50000000000000E0E070707070383838381CF6
:102E60001C1C1C0E0E0E0E070700000000000000C8
:102E7000000000000000000000003F803F803F8015
:102E80003F803C003C003C003C003C003C003C00DF
:102E90003C003C003C003C003C003C003C003C0052
:102EA0003C003C003F803F803F803F8000000000AE
:102EB0000000000000000000000000000000007F93
:102EC000FF007FFF007FFF007FFF00001E00003C2F
:102ED0000000780000F00001E00003C00007C0001F
:102EE0000780000F00001E00003C0000780000FF7B
:102EF000FF00FFFF00FFFF00FFFF000000000000D9
:102F000000000000000000000000000000000000C1
:102F1000000000000000000000000000000000F0C1
:102F200003C0F807C07C0F803C0F003E1F001E1E30
:102F3000000F3C000FFC0007F80003F00003F00056
:102F400001E00001E00001E00001E00001E000011B
:102F5000E00001E00001E00001E0000000000000EE
:102F60000000000000000000000000000000000061
:102F70000000000000000000000000000000003C15
:102F80000F003E1F001E1E000F3C000F3C0007F804
:102F90000007F80003F00001E00001E00003F0008A
:102FA00007F00007F8000F3C000F3C001E1E001E3B
:102FB0001E003C0F007C0F8078078000000000009E
:102FC0000000000000000000000000000000000001
:102FD00000000000000000000000000000000000F1
:102FE00000000000F03E0780F03E0780703E0700C2
:102FF000787F0F0078770F0078770F0078770F00D1
:1030000038F78E0038E38E003CE39E003CE39E00E0
:103010003CE39E001DC1DC001DC1DC001DC1DC00C5
:103020001DC1DC001F80FC000F80F8000F80F8003D
:103030000F80F80000000000000000000000000009
:103040000000000000000000000000000000000080
:10305000000000000000000000000000000000F080
:103060000780F80F80780F00780F00780F003C1E63
:10307000003C1E003C1E001C1C001E3C001E3C00B0
:103080001E3C000E38000F78000F78000770000714
:10309000700007F00003E00003E000000000000003
:1030A0000000000000000000000000000000000020
:1030B0000000000000000000000000000000003CD4
:1030C00003C03C03C03C03C03C03C03C03C03C0302
:1030D000C03C03C03C03C03C03C03C03C03C03C035
:1030E0003C03C03C03C03C03C03E03C03F0FC01FB5
:1030F000FF801FFF800FFF0003FC000000000000A6
:1031000000000000000000000000000000000000BF
:103110000000000000000000000000000000007F30
:10312000FF807FFF807FFF807FFF8001E00001E064
:103130000001E00001E00001E00001E00001E0002A
:1031400001E00001E00001E00001E00001E0000119
:10315000E00001E00001E00001E0000000000000EC
:10316000000000000000000000000000000000005F
:10317000000000000000000000000000000000034C
:10318000F0000FFC001FFE003FFE003E1F003C0F42
:10319000003E00003FC0001FF8000FFE0003FF00CC
:1031A000007F80000F807807807C07803E0F803F83
:1031B000FF001FFF000FFE0003F8000000000000EA
:1031C00000000000000000000000000000000000FF
:1031D0000000000000000000000000000000003FB0
:1031E000FE003FFF003FFF803FFFC03C07C03C03A5
:1031F000C03C03C03C07C03FFF803FFF803FFF0053
:103200003FF8003C3E003C1F003C0F003C0F803C60
:1032100007C03C03C03C03E03C01F000000000009C
:10322000000000000000000000000000000000009E
:10323000000000000000000000000000000000018D
:10324000FC0007FF000FFF801FFFC03F07E03E03A9
:10325000E07C01F07800F07800F07800F07800F081
:103260007800F07800F07C19F03E3FE03F0FE01F5F
:10327000FFC00FFFC007FFF001FCF8000070000066
:10328000300000000000000000000000000000000E
:103290000000000000000000000000000000003FEF
:1032A000FC003FFE003FFF003FFF803C0F803C07DB
:1032B000803C07803C0F803FFF803FFF003FFE00C7
:1032C0003FF8003C00003C00003C00003C00003C9B
:1032D00000003C00003C00003C000000000000003A
:1032E00000000000000000000000000000000000DE
:1032F00000000000000000000000000000000001CD
:10330000FC0007FF000FFF801FFFC03F07E03C03EA
:10331000E07C01F07800F07800F07800F07800F0C0
:103320007800F07800F07C01F03E03E03F07E01FFA
:10333000FFC00FFF8007FF0001FC0000000000003D
:10334000000000000000000000000000000000007D
:103350000000000000000000000000000000003C31
:1033600003C03E03C03F03C03F03C03F83C03F8351
:10337000C03FC3C03DC3C03DE3C03CF3C03CF3C04D
:103380003C7BC03C3BC03C3FC03C1FC03C1FC03CE2
:103390000FC03C0FC03C07C03C07C000000000004D
:1033A000000000000000000000000000000000001D
:1033B0000000000000000000000000000000007E8F
:1033C00003F07F07F07F07F07F07F07B06F07B8E2E
:1033D000F07B8EF07B8EF07B8EF079DCF079DCF088
:1033E00079DCF079DCF078D8F078F8F078F8F078DB
:1033F000F8F078F8F07870F07870F00000000000D5
:1034000000000000000000000000000000000000BC
:103410000000000000000000000000000000003C70
:1034200000003C00003C00003C00003C00003C0070
:10343000003C00003C00003C00003C00003C000060
:103440003C00003C00003C00003C00003C00003F11
:10345000FF003FFF003FFF003FFF000000000000B3
:10346000000000000000000000000000000000005C
:103470000000000000000000000000000000003C10
:1034800003E03C07C03C0F803C1F003C3E003C7CFE
:10349000003CF8003DF0003FF0003FF8003FFC002A
:1034A0003F3C003E3E003C1E003C0F003C0F803C79
:1034B00007803C07C03C03E03C01E0000000000046
:1034C00000000000000000000000000000000000FC
:1034D0000000000000000000000000780078007884
:1034E000007800780078007800780078007800781C
:1034F00000780078F078F078F8F87FF07FF03FE01F
:103500001F8000000000000000000000000000001C
:1035100000000000003C3C3C3C3C3C3C3C3C3C3C17
:103520003C3C3C3C3C3C3C3C3C000000000000007F
:103530000000000000000000000000000000003C4F
:1035400003C03C03C03C03C03C03C03C03C03C037D
:10355000C03C03C03C03C03FFFC03FFFC03FFFC0B3
:103560003FFFC03C03C03C03C03C03C03C03C03C25
:1035700003C03C03C03C03C03C03C000000000008B
:10358000000000000000000000000000000000003B
:10359000000000000000000000000000000000012A
:1035A000FC0007FF000FFF801FFFC03F07E03C0348
:1035B000E07C0180780000780000781FE0781FE050
:1035C000781FE0781FE03C01E03E01E03F07E01F8C
:1035D000FFE00FFFC007FF0001FC0000000000003B
:1035E00000000000000000000000000000000000DB
:1035F0000000000000000000000000000000003F8C
:10360000FF003FFF003FFF003FFF003C00003C0089
:10361000003C00003C00003FFE003FFE003FFE007B
:103620003FFE003C00003C00003C00003C00003C31
:1036300000003C00003C00003C00000000000000D6
:10364000000000000000000000000000000000007A
:103650000000000000000000000000000000003F2B
:10366000FF803FFF803FFF803FFF803C00003C0029
:10367000003C00003C00003FFF003FFF003FFF0018
:103680003FFF003C00003C00003C00003C00003FCD
:10369000FF803FFF803FFF803FFF80000000000071
:1036A000000000000000000000000000000000001A
:1036B0000000000000000000000000000000003FCB
:1036C000FC003FFF003FFF803FFF803C07C03C0302
:1036D000C03C03E03C01E03C01E03C01E03C01E097
:1036E0003C01E03C01E03C03E03C03C03C07C03F40
:1036F000FF803FFF803FFF003FFC00000000000014
:1037000000000000000000000000000000000000B9
:1037100000000000000000000000000000000001A8
:10372000FC0007FF000FFF801FFFC03F07C03C03E6
:10373000E07C0180780000780000780000780000CC
:103740007800007801807C03E03C03E03F0FC01F5D
:10375000FFC00FFF8007FF0001FC00000000000019
:103760000000000000000000000000000000000059
:103770000000000000000000000000000000003F0A
:10378000FE003FFF003FFF803FFFC03C07C03C03FF
:10379000C03C03C03C07803FFF803FFF003FFF80ED
:1037A0003FFFC03C03E03C01E03C01E03C03E03F64
:1037B000FFE03FFFC03FFF803FFF00000000000030
:1037C00000000000000000000000000000000000F9
:1037D00000000000000000000000000000000001E8
:1037E000F00003F80003F80003F80007BC0007BC72
:1037F0000007BC000F1E000F1E000F1E001E0F0052
:103800001E0F001FFF003FFF803FFF803C078078B6
:1038100003C07803C07803C0F001E000000000009E
:103820000000000000000000000000000000000098
:103830000000000000000000000000000000000088
:1038400000000000003FC00000FFF00003FFFC008C
:1038500007E07E000F001E001E3DEF001C7FE7000A
:103860003CFFE78039E7C38039C3C38079C3C38095
:103870007383C3807383C3807383870073878700D8
:1038800073878F0073CF9E0071FFFC0039FFF80033
:1038900038F3E0003C0003C01E0007800F000F80DB
:1038A0000FC03F0003FFFE0001FFF800003FE000F3
:1038B0000000000000000000000000000000000701
:1038C000E0001FF8003FFC003C3E007C1E00781E1C
:1038D00000001E00003E00007C0001F80001F00026
:1038E00003E00003C00003C000000000000000036C
:1038F000C00003C00003C00003C0000000000000BF
:1039000000000000000000000000000000000000B7
:1039100000000000000000000000000000000000A7
:10392000400070007E007F803FE007F800FC003C14
:1039300000FC07F83FE07F807E0070004000000040
:103940000000000000000000000000000000000077
:103950000000000000000000000000000000000067
:10396000000000007FFE7FFE7FFE7FFE0000000063
:103970007FFE7FFE7FFE7FFE000000000000000053
:103980000000000000000000000000000000000037
:103990000000000000000000000000000000000027
:1039A0000004001C00FC03FC0FF83FC07E00780000
:1039B0007E003FC00FF803FC00FC001C0004000068
:1039C00000000000000000000000000000000000F7
:1039D00000000000000000000000000000000000E7
:1039E000000000001E001E001E001E00000000005F
:1039F000000000000000000000001E001E001E006D
:103A00001E0006000E001C00080000000000000060
:103A100000000000000000000000000000000000A6
:103A2000000000001E001E001E001E00000000001E
:103A3000000000000000000000001E001E001E002C
:103A40001E00000000000000000000000000000058
:103A50000000000000000000000007C01FE03FF071
:103A60003C787838783C783C783C783C3C7C3FFC2F
:103A70001FFC0FBC003C003878787C783FF03FE0BA
:103A80000F800000000000000000000000000000A7
:103A9000000000000000000000000FE01FF03FF8F1
:103AA0007C7C783C783C783C3C781FF00FE01FF041
:103AB0003C78783C783C783C783C7C7C3FF81FF044
:103AC00007C000000000000000000000000000002F
:103AD000000000000000000000007FFC7FFC7FFC75
:103AE000007C00F800F001E003E003C007C007809D
:103AF00007800F000F000F000F001E001E001E00A9
:103B00001E00000000000000000000000000000097
:103B10000000000000000000000003E00FF01FF8AC
:103B20003C7C3C3C380078007BE07FF07FF87C7880
:103B3000783C783C783C783C383C3C781FF80FF077
:103B400007C00000000000000000000000000000AE
:103B5000000000000000000000001FF81FF83FF800
:103B60003C00380038003BE07FF07FF87878003C7C
:103B7000003C003C003C003C783C7C783FF01FF06F
:103B80000FC0000000000000000000000000000066
:103B90000000000000000000000000F000F001F054
:103BA00003F003F007F00EF00EF01CF038F038F0E0
:103BB00070F0E0F0FFFCFFFCFFFC00F000F000F014
:103BC00000F0000000000000000000000000000005
:103BD000000000000000000000000FC01FE03FF0E8
:103BE0007CF87878007800F003F003C003F00078E8
:103BF000003C003C003C783C783C3C783FF81FF0AF
:103C000007C00000000000000000000000000000ED
:103C10000000000000000000000007E01FF03FF877
:103C20003C7C783C783C003C003C007800F801F09B
:103C300003E007C00F801F001E003C003FFC7FFC1C
:103C40007FFC0000000000000000000000000000F9
:103C50000000000000000000000000E001E003E0C0
:103C600007E01FE03FE03DE039E021E001E001E056
:103C700001E001E001E001E001E001E001E001E03C
:103C800001E0000000000000000000000000000053
:103C90000000000000000000000007C01FF01FF03F
:103CA0003C783C78783C783C783C783C783C783C74
:103CB000783C783C783C783C3C783C781FF01FF0AE
:103CC00007C000000000000000000000000000002D
:103CD000000000000007070E0E0E0E1C1C1C1C38F6
:103CE00038383870707070E0E000000000000000AC
:103CF00000000000000000000000000000000000C4
:103D000000000000003C3C3C3C00000000000000C3
:103D100000000000000000000000000000000000A3
:103D20000000000000000000000000000000000093
:103D30007F807F807F807F80000000000000000087
:103D40000000000000000000000000000000000073
:103D50000000000000000000000000000000000063
:103D600000000000003C3C3C3C0C1C3810000000F3
:103D70000000000000000000000000000000000043
:103D800003C003C003C003C003C07FFE7FFE7FFEED
:103D90007FFE03C003C003C003C003C000000000D7
:103DA0000000000000000000000000000000000013
:103DB000000000000000000000000C000C00CCC05F
:103DC000FFC01E001E0033007380210000000000B1
:103DD00000000000000000000000000000000000E3
:103DE00000000000000000000000000000000000D3
:103DF00000000000000000000000700038003800E3
:103E00003C001C001E001E000E000F000F000F00E3
:103E10000F000F000F000F000F000F000E001E001C
:103E20001E001C003C00380038007000000000003C
:103E30000000000000000000000007000E000E005F
:103E40001E001C003C003C00380078007800780020
:103E500078007800780078007800780038003C001E
:103E60003C001C001E000E000E00070000000000B9
:103E70000000000000787878787878300000000042
:103E80000000000000000000000000000000000032
:103E9000000000000000000000000000000000031F
:103EA000E0000FF8001FFC001E3C001E3C001E3C02
:103EB000000F78000FF80007E0000FE0001FE0009F
:103EC0003FF3807CFF80787F80783F00783F007CE4
:103ED0007FC03FFFE01FFBC007E080000000000044
:103EE00000000000000000000000000000000000D2
:103EF0000000000000000000000000000000001FA3
:103F000001C03F81C071C38071C38071C78071C718
:103F10000071C70071CE003F8E001F1C00001C0006
:103F20000038F80039FC00738E00738E00E38E00B9
:103F3000E38E01C38E01C38E0381FC0380F8000071
:103F40000000000000000000000000000000000071
:103F50000000000000000000018007E00FF01FF8E3
:103F60003DBC399C398039803F801FC00FF007F875
:103F700001FC01BC019C399C3D9C1DBC1FF80FF04D
:103F800007E0018001800000000000000000000048
:103F900000000000000000000000071C071C0F3C90
:103FA0000E380E38FFFEFFFEFFFE1C701C701C70EA
:103FB0001C70FFFEFFFEFFFE38E038E079E071C0C4
:103FC00071C00000000000000000000000000000C0
:103FD0000000000000000000000079E079E079E0D6
:103FE00079E079E079E030C00000000000000000D6
:103FF00000000000000000000000000000000000C1
:1040000000000000000000000000000000000000B0
:1040100000000000003C3C3C3C3C3C3C3C3C181854
:1040200018181800003C3C3C3C0000000000000058
:104030000000000000000000000000000000000080
:104040000000000000000000000000000000000070
:1040500079550208217202086D800208097D020864
:104060000000000000000000202001017440000852
:104070001A0F1400A000FF0080400008A45E000892
:1040800008080100605E000808080100405E0008A2
:104090000F0F0200005E00080F0F0200C05D000855
:1040A0000F0F0200805D00080F0F0200405D000846
:1040B00006060100205D00080F0F0200E05C00080A
:1040C00009090200A05C000814140300405C000809
:1040D0000A0A0200005C00080F0F0200C05B000823
:1040E00010100200805B000809090200405B000814
:1040F00014140300E05A00080F0F0200A05A000831
:104100000B0B0200605A00080F0F0200205A000833
:1041100009090200E059000809090200A059000835
:104120000909020060590008101002002059000817
:104130000F0F0200E058000808080100C0580008EE
:1041400009090200805800080909020040580008C7
:104150000A0A0200005800080F0F0200C0570008AA
:1041600017170300605700081717030000570008CF
:1041700017170300A056000811110300405600084D
:1041800012120300E05500081212030080550008C7
:10419000121203002055000812120300C054000838
:1041A00012120300605400081212030000540008A9
:1041B0001B1B040080530008141403002053000844
:1041C00012120300C05200081212030060520008CD
:1041D000121203000052000812120300A05100083E
:1041E000080801008051000808080100605100081B
:1041F000080801004051000808080100205100088B
:1042000014140300C050000813130300605000088A
:10421000151503000050000815150300A04F0008F5
:1042200015150300404F000815150300E04E000867
:1042300015150300804E000810100200404E0008C3
:1042400015150300E04D000813130300804D00080E
:1042500013130300204D000813130300C04C000883
:1042600013130300604C000812120300004C0008F6
:1042700012120300A04B000811110300404B00086C
:104280000F0F0200004B00080F0F0200C04A000889
:104290000F0F0200804A00080F0F0200404A00087A
:1042A0000F0F0200004A00080F0F0200C04900086B
:1042B00018180300604900080E0E0200204900088B
:1042C0000F0F0200E04800080F0F0200A04800088E
:1042D0000F0F0200604800080F0F0200204800087E
:1042E000060601000048000806060100E047000835
:1042F00006060100C047000806060100A0470008A6
:104300000F0F0200604700080F0F0200204700084F
:104310000F0F0200E04600080F0F0200A046000841
:104320000F0F0200604600080F0F02002046000831
:104330000F0F0200E04500080F0F0200A045000823
:1043400011110300404500080F0F0200004500084E
:104350000F0F0200C04400080F0F02008044000845
:104360000F0F0200404400080E0E02000044000837
:104370000F0F0200C04300080E0E02008043000829
:10438000000000000000000000000000000000002D
:104390000CC00CC00000601860183030303038306D
:1043A000186018600C600CC00CC006C00780078045
:1043B000038003000300060006003C0038000000F4
:1043C000000000000000000000000000300030008D
:1043D00030003000300033C03FF03C383818300C2B
:1043E000300C300C300C300C300C301C38183C3891
:1043F0003FF033C0300030003000300030000000AB
:1044000000000000000000000000000001C0038068
:10441000030006000000601860183030303038307B
:10442000186018600C600CC00CC006C007800780C4
:10443000038003000300060006003C003800000073
:10444000000000000000000000000000000000006C
:104450000CC00CC00000301830183018301830185C
:104460003018301830183018301830183038387884
:104470001FD80F980000000000000000000000009E
:10448000000000000000000000000000018003C0E8
:1044900006600660000030183018301830183018E8
:1044A0003018301830183018301830183038387844
:1044B0001FD80F980000000000000000000000005E
:1044C00000000000000000000000000000E001C04B
:1044D00001800300000030183018301830183018F0
:1044E0003018301830183018301830183038387804
:1044F0001FD80F980000000000000000000000001E
:104500000000000000000000000000000E00070096
:1045100003000180000030183018301830183018AF
:1045200030183018301830183018301830383878C3
:104530001FD80F98000000000000000000000000DD
:10454000000000000000000000000000000000006B
:104550000000000000000000000000000000000457
:104560000007FE001FFC00383C00301C00703E00BD
:1045700060760060E60061C6006386006706006E34
:104580000E007C0C00383C003FF8006FE00020007B
:10459000000000000000000000000000000000001B
:1045A000000000000000000000000000000000000B
:1045B00000000000000003000300000000007FF87E
:1045C0007FF800000000030003000000000000006E
:1045D00000000000000000000000000000000000DB
:1045E00000000000000000000000000000000000CB
:1045F00006600660000007C01FF038383018701CD5
:10460000600C600C600C600C600C701C301838384A
:104610001FF007C0000000000000000000000000C4
:104620000000000000000000000000000000073053
:104630000FF00CE0000007C01FF038383018701C75
:10464000600C600C600C600C600C701C301838380A
:104650001FF007C000000000000000000000000084
:10466000000000000000000000000000018003C006
:1046700006600660000007C01FF038383018701C54
:10468000600C600C600C600C600C701C30183838CA
:104690001FF007C000000000000000000000000044
:1046A00000000000000000000000000000E001C069
:1046B00001800300000007C01FF038383018701C5C
:1046C000600C600C600C600C600C701C301838388A
:1046D0001FF007C000000000000000000000000004
:1046E0000000000000000000000000000700038040
:1046F000018000C0000007C01FF038383018701C5F
:10470000600C600C600C600C600C701C3018383849
:104710001FF007C0000000000000000000000000C3
:104720000000000000000000000000000000073052
:104730000FF00CE0000033E03FF03C383818301840
:104740003018301830183018301830183018301829
:1047500030183018000000000000000000000000C9
:104760000000000000000000000000000F1003F037
:1047700003C00EE0087007B01FF838383018701CFE
:10478000600C600C600C600C600C701C30183838C9
:104790001FF007C000000000000000000000000043
:1047A0000000000000000000CCCC00303030303081
:1047B0003030303030303030303000000000000019
:1047C0000000000000003078CCCC003030303030B9
:1047D00030303030303030303030000000000000F9
:1047E0000000000000001C383060003030303030F5
:1047F00030303030303030303030000000000000D9
:10480000000000000000E070301800303030303020
:1048100030303030303030303030000000000000B8
:104820000000000000000000000000000000000088
:1048300006600660000007C01FF038383018600CB2
:10484000600C7FFC7FFC600060007000300C3C3826
:104850001FF007E000000000000000000000000062
:10486000000000000000000000000000018003C004
:1048700006600660000007C01FF038383018600C72
:10488000600C7FFC7FFC600060007000300C3C38E6
:104890001FF007E000000000000000000000000022
:1048A00000000000000000000000000000E001C067
:1048B00001800300000007C01FF038383018600C7A
:1048C000600C7FFC7FFC600060007000300C3C38A6
:1048D0001FF007E0000000000000000000000000E2
:1048E000000000000000000000000000070003803E
:1048F000018000C0000007C01FF038383018600C7D
:10490000600C7FFC7FFC600060007000300C3C3865
:104910001FF007E0000000000000000000000000A1
:104920000000000000000000000000000000000087
:1049300000000000000007C01FE038703038601829
:1049400060006000600060006018601830303870EF
:104950001FE007C003000700018001801F801F00C7
:104960000000000000000000000000000000000047
:104970000000000000000000000000000000000037
:10498000000FC3E03FFFF8303E1C601C0C0018060F
:104990000078060FFFFE3F9FFE3018006018006091
:1049A0001806603C0C706E1C3FC7F81F03E0000047
:1049B00000000000000000000000000000000000F7
:1049C00000000000000000000000038004400440DC
:1049D0000440038000000FE03FF0303860180018FA
:1049E00000F80FF83F98301860186018603870F8B9
:1049F0003FD81F8C000000000000000000000000F5
:104A000000000000000000000000000000000000A6
:104A10000660066000000FE03FF0303860180018B4
:104A200000F80FF83F98301860186018603870F878
:104A30003FD81F8C000000000000000000000000B4
:104A400000000000000000000000000000000E60F8
:104A50001FE019C000000FE03FF030386018001868
:104A600000F80FF83F98301860186018603870F838
:104A70003FD81F8C00000000000000000000000074
:104A8000000000000000000000000000030007809C
:104A90000CC00CC000000FE03FF030386018001868
:104AA00000F80FF83F98301860186018603870F8F8
:104AB0003FD81F8C00000000000000000000000034
:104AC00000000000000000000000000000E001C045
:104AD0000180030000000FE03FF03038601800183C
:104AE00000F80FF83F98301860186018603870F8B8
:104AF0003FD81F8C000000000000000000000000F4
:104B0000000000000000000000000000070003801B
:104B1000018000C000000FE03FF03038601800183E
:104B200000F80FF83F98301860186018603870F877
:104B30003FD81F8C000000000000000000000000B3
:104B40000000000000000000000000000000000065
:104B5000000007E0000FF0001C3800381800301883
:104B6000003018003030003030003060003060001D
:104B7000307000303800301E003006003003003046
:104B8000030031830033C70031FE00307C00000099
:104B90000000000000000000000000000000000015
:104BA0000000000000000000000000000000000005
:104BB00000003000003000003000003000003FF8FE
:104BC000003FFE003007003003803001803001805C
:104BD0003001803001803003003007003FFE003F8D
:104BE000F80030000030000030000030000000000D
:104BF00000000000000000000000000000000000B5
:104C000000700000E00000C0000180000000000013
:104C10000000600380300700180600180E000C0C1E
:104C2000000E1C0007380003300003300001E000D4
:104C300001E00000C00000C00000C00000C0000093
:104C4000C00000C00000C00000C00000C0000000A4
:104C50000000000000000000000000000000000054
:104C60000000000000000198000198000000000012
:104C7000000030018030018030018030018030013F
:104C8000803001803001803001803001803001802F
:104C90003001803001803001803001803001803867
:104CA00003801803001E0F000FFE0003F800000031
:104CB00000000000000000000000000000000000F4
:104CC00000600000F0000198000198000000000062
:104CD00000003001803001803001803001803001DF
:104CE00080300180300180300180300180300180CF
:104CF0003001803001803001803001803001803807
:104D000003801803001E0F000FFE0003F8000000D0
:104D10000000000000000000000000000000000093
:104D200000380000700000600000C00000000000BB
:104D3000000030018030018030018030018030017E
:104D4000803001803001803001803001803001806E
:104D500030018030018030018030018030018038A6
:104D600003801803001E0F000FFE0003F800000070
:104D70000000000000000000000000000000000033
:104D800003800001C00000C00000600000000000BF
:104D9000000030018030018030018030018030011E
:104DA000803001803001803001803001803001800E
:104DB0003001803001803001803001803001803846
:104DC00003801803001E0F000FFE0003F800000010
:104DD00000000000000000000000000000000000D3
:104DE00000000000000000000000000000000000C3
:104DF000000001FC3007FE700F07E01C01C0380105
:104E0000C0300360300660600E30601C30603830A7
:104E100060703060E03060C0307180703300603EA0
:104E200000E01C01C01F07803FFF0071FC00200054
:104E30000000000000000000000000000000000072
:104E40000000000000000000000000000000000062
:104E5000000000000000180C1C1C0E38077003E056
:104E600001C003E007700E381C1C180C0000000085
:104E70000000000000000000000000000000000032
:104E800000000000000000CC0000CC00000000008A
:104E9000000001FC0007FF000F07801C01C0380064
:104EA000E030006070007060003060003060003002
:104EB000600030600030600030700070300060389A
:104EC00000E01C01C00F078007FF0001FC0000008C
:104ED00000000000000000000000000000000000D2
:104EE00000000001CC0003FC0003380000000000BB
:104EF000000001FC0007FF000F07801C01C0380004
:104F0000E0300060700070600030600030600030A1
:104F10006000306000306000307000703000603839
:104F200000E01C01C00F078007FF0001FC0000002B
:104F30000000000000000000000000000000000071
:104F400000300000780000CC0000CC000000000021
:104F5000000001FC0007FF000F07801C01C03800A3
:104F6000E030006070007060003060003060003041
:104F700060003060003060003070007030006038D9
:104F800000E01C01C00F078007FF0001FC000000CB
:104F90000000000000000000000000000000000011
:104FA000001C00003800003000006000000000001D
:104FB000000001FC0007FF000F07801C01C0380043
:104FC000E0300060700070600030600030600030E1
:104FD0006000306000306000307000703000603879
:104FE00000E01C01C00F078007FF0001FC0000006B
:104FF00000000000000000000000000000000000B1
:1050000000E0000070000030000018000000000008
:10501000000001FC0007FF000F07801C01C03800E2
:10502000E030006070007060003060003060003080
:105030006000306000306000307000703000603818
:1050400000E01C01C00F078007FF0001FC0000000A
:105050000000000000000000000000000000000050
:1050600000000001CC0003FC000338000000000039
:1050700000003801803801803C01803C018036010D
:105080008033018033018031818030C18030C18024
:10509000306180306180303180301980301980304B
:1050A0000D8030078030078030038030038000009F
:1050B00000000000000000000000000000000000F0
:1050C00000000000000000000000000000000000E0
:1050D00000003FFC003FFE003007803001803000C0
:1050E000C03000C0300060300060300060FFC06041
:1050F000FFC0603000603000603000603000C030C1
:1051000000C03001803007803FFE003FF800000003
:10511000000000000000000000000000000000008F
:1051200000006666000018181818181818181818C3
:10513000181818181818181818180000000000007F
:10514000183C66660000181818181818181818184F
:10515000181818181818181818180000000000005F
:105160000E1C1830000018181818181818181818DD
:10517000181818181818181818180000000000003F
:105180007038180C00001818181818181818181863
:10519000181818181818181818180000000000001F
:1051A00000000000000001980001980000000000CD
:1051B00000003FFF803FFF803000003000003000E3
:1051C000003000003000003000003000003FFF00E1
:1051D0003FFF0030000030000030000030000030A1
:1051E00000003000003000003FFF803FFF800000E3
:1051F00000000000000000000000000000000000AF
:1052000000600000F000019800019800000000001C
:1052100000003FFF803FFF80300000300000300082
:10522000003000003000003000003000003FFF0080
:105230003FFF003000003000003000003000003040
:1052400000003000003000003FFF803FFF80000082
:10525000000000000000000000000000000000004E
:1052600000380000700000600000C0000000000076
:1052700000003FFF803FFF80300000300000300022
:10528000003000003000003000003000003FFF0020
:105290003FFF0030000030000030000030000030E0
:1052A00000003000003000003FFF803FFF80000022
:1052B00000000000000000000000000000000000EE
:1052C00001C00000E00000600000300000000000AD
:1052D00000003FFF803FFF803000003000003000C2
:1052E000003000003000003000003000003FFF00C0
:1052F0003FFF003000003000003000003000003080
:1053000000003000003000003FFF803FFF800000C1
:10531000000000000000000000000000000000008D
:10532000000000000000000000000000000000007D
:10533000000001FC0007FF000F03801C01C03800C3
:10534000E03000607000006000006000006000005D
:105350006000006000006000003000603000E03855
:1053600000C01C01C00E078007FF0001FC000060A8
:105370000000E00000300000300003F00003E00017
:10538000000000000000000000000000000000001D
:105390000000000000000000007FFFC0007FFFC091
:1053A00000C6000000C60000018600000186000063
:1053B0000306000003060000060600000607FF8043
:1053C0000C07FF800C0600001FFE00001FFE0000FF
:1053D0003006000030060000600600006006000095
:1053E000C007FFC0C007FFC00000000000000000B1
:1053F00000000000000000000000000000000000AD
:1054000000000000000001C0000220000220000295
:10541000200001C00001C0000360000360000770AD
:10542000000630000630000E38000C18000C180082
:10543000180C00180C001FFC003FFE003006007026
:105440000700600300600300C00180C0018000000D
:10545000000000000000000000000000000000004C
:1054600000000000000003300003300000000000D6
:10547000000001C00001C00003600003600007706D
:10548000000630000630000E38000C18000C180022
:10549000180C00180C001FFC003FFE0030060070C6
:1054A0000700600300600300C00180C001800000AD
:1054B00000000000000000000000000000000000EC
:1054C00000000003980007F80006700000000000CC
:1054D000000001C00001C00003600003600007700D
:1054E000000630000630000E38000C18000C1800C2
:1054F000180C00180C001FFC003FFE003006007066
:105500000700600300600300C00180C0018000004C
:10551000000000000000000000000000000000008B
:1055200001800003C000066000066000000000006B
:10553000000001C00001C0000360000360000770AC
:10554000000630000630000E38000C18000C180061
:10555000180C00180C001FFC003FFE003006007005
:105560000700600300600300C00180C001800000EC
:10557000000000000000000000000000000000002B
:1055800000700000E00000C000018000000000008A
:10559000000001C00001C00003600003600007704C
:1055A000000630000630000E38000C18000C180001
:1055B000180C00180C001FFC003FFE0030060070A5
:1055C0000700600300600300C00180C0018000008C
:1055D00000000000000000000000000000000000CB
:1055E00003800001C00000C0000060000000000057
:1055F000000001C00001C0000360000360000770EC
:10560000000630000630000E38000C18000C1800A0
:10561000180C00180C001FFC003FFE003006007044
:105620000700600300600300C00180C0018000002B
:10563000000000000000000000000000000000006A
:10564000000000000000000000000000000000005A
:10565000000000000000000000000000000000004A
:1056600000018000018000000000000000018000B7
:105670000180000180000380000700000600000C8C
:10568000000018000038000030000030060030062E
:1056900000380C001C1C000FF80003E000000000A4
:1056A00000000000000000000000000000000000FA
:1056B00000003E00307F0060C300E00300C00C012A
:1056C00080030300030700C706007E0C003C18009F
:1056D00000381800303800607800C0F801C0D801E8
:1056E00081980303180703FC0600180C001800003B
:1056F00000000000000000000000000000000000AA
:105700000000000000000000000000000000000099
:1057100000000600301E00603E00C02601C00601E9
:1057200080060300060600060E00060C00061800A0
:105730000030F80071FC00630C00C00C01801803FD
:1057400080300300600601800C01FC1C03FC00009B
:105750000000000000000000000000000000000049
:105760000000000000000000000000000000000039
:1057700000000600301E00603E00C02601C0060189
:1057800080060300060700060E00060C000618003F
:1057900000381800303800607800C07801C0D801A7
:1057A00081980303180603FC0E00180C0018000073
:1057B00000000000000000000000000000000000E9
:1057C00000000000000000000000000000000000D9
:1057D00000000000000000000000318018C00C60D4
:1057E0000C6006300318031806300C600C6018C0FB
:1057F00031800000000000000000000000000000F8
:105800000000000000000000000000001E003F003B
:105810007380618061806180618073803F001E00C1
:105820000000000000000000000000000000000078
:105830000000000000000000000000000000000068
:1058400000000000000000000000000006001E0034
:105850003E002600060006000600060006000600C0
:105860000000000000000000000000000000000038
:105870000000000000000000000000000000000028
:105880000000000000000000000000000000000018
:105890000000000000000000000000000000000008
:1058A00000000000000000000000000000000000F8
:1058B00000000000180038000C000C00FC00F8008C
:1058C00000000000000000000000000000000000D8
:1058D0003030000000000000000000000000000068
:1058E0000000000000000000000000001FFE3FFE5E
:1058F0007F18FF18FF18FF18FF18FF187F183F18B0
:105900001F180318031803180318031803180318A3
:1059100003180318031803180318031803180000CA
:105920000000000000000000000000000000000077
:10593000000000000000300C300C300C300C300C3B
:10594000300C300C300C300C300C300C381C3C3C23
:105950003FFC37CC30003000300030003000000019
:1059600000000000000000000000000007000E0022
:105970000C00180000000000000000000000000003
:105980000000000000000000000000000000000017
:105990000000000000000000000000000000000007
:1059A0000000000000000000000000003E007F003A
:1059B000C30003000C0003000300C7007E003C008E
:1059C00000000000000000000000000000000000D7
:1059D00000000000000000000000000000000000C7
:1059E0000000000000000000000000003E007F00FA
:1059F000C300030006000C00180030007F00FF0009
:105A00000000000000000000000000000000000096
:105A10000000000000000000000000000000000086
:105A20000000000000000000000000000000000076
:105A300000000000030003000300030003007FF8E0
:105A40007FF80300030003000300030000000000D0
:105A50007FF87FF800000000000000000000000058
:105A60000000000000000000000000000E00110017
:105A700020802080208011000E0000000000000027
:105A80000000000000000000000000000000000016
:105A90000000000000000000000000000000000006
:105AA000000000000000FFFEFFFE000000000000FC
:105AB00000000000000000000000000000000000E6
:105AC00000000000000000000000000000000000D6
:105AD00000000000000000000000000000000000C6
