:020000040800F2
:10000000707D002045C40508FDC20508FFC2050833
:1000100001C3050803C3050805C305080000000067
:10002000000000000000000000000000219F000808
:1000300007C3050800000000C59E000809C30508A5
:1000400035C7050839C705083DC7050841C7050874
:1000500045C7050849C705084DC7050851C7050824
:1000600055C7050859C705085DC7050861C70508D4
:1000700065C7050869C705086DC7050871C7050884
:1000800075C7050879C705087DC7050881C7050834
:1000900085C7050889C705088DC7050891C70508E4
:1000A00095C7050899C705089DC70508A1C7050894
:1000B000A5C70508A9C70508ADC70508B1C7050844
:1000C000B5C70508B9C70508BDC70508C1C70508F4
:1000D000C5C70508C9C70508CDC70508D1C70508A4
:1000E000D5C70508D9C70508DDC70508E1C7050854
:1000F000E5C70508E9C70508EDC70508F1C7050804
:10010000F5C70508F9C70508FDC7050801C80508B2
:1001100005C8050809C805088BB700080DC80508FB
:1001200011C8050815C8050819C805081DC805081F
:1001300021C8050825C8050829C805082DC80508CF
:1001400031C8050835C8050839C805083DC805087F
:1001500041C8050845C8050849C805084DC805082F
:1001600051C8050855C8050859C805085DC80508DF
:1001700061C8050865C8050869C8050800000000D1
:100180006DC8050871C8050875C8050879C805084F
:100190007DC8050881C8050885C8050889C80508FF
:1001A0008DC8050891C8050895C8050899C80508AF
:1001B0009DC80508A1C80508A5C80508A9C805085F
:1001C000ADC80508B1C80508493D0008B5C805080F
:1001D000B9C80508BDC80508C1C80508C5C80508CF
:1001E000C9C80508CDC80508D1C80508D5C805087F
:1001F000D9C80508DDC80508980100200B000000DB
:100200000B00000064000000000000000F00000070
:10021000160016000B000400BC1000083C03000888
:1002200000000000160016000B000400C80F0008B4
:100230003C03000800000000160016000B0004003C
:10024000D40E00083C030008000000001600160051
:100250000B000400E00D00083C0300080000000053
:10026000160016000B000400EC0C00083C0300080C
:1002700000000000160016000B000400F80B000838
:100280003C03000800000000160016000B000400EC
:10029000040B00083C0300080000000016001600D4
:1002A0000B000400100A00083C03000800000000D6
:1002B000160016000B0004001C0900083C0300088F
:1002C00000000000160016000B00040028080008BB
:1002D0003C03000800000000160016000B0004009C
:1002E000340700083C030008000000001600160058
:1002F0000B000400400600083C030008000000005A
:10030000160016000B0004004C0500083C03000812
:1003100000000000160016000B000400580400083E
:100320003C03000800000000160016000B0004004B
:10033000640300083C030008000000000700000000
:100340000100000048030008FF000000CCCCCC00F6
:100350000000000000999900FFFFFF0099999900A3
:1003600000FFFF000000000220000000000000006D
:1003700000002320000000000000000002332000E5
:100380000000000000000023331200000000000005
:10039000000233311120000000000000236311111E
:1003A000120000000000023631111112000000009E
:1003B00000236311111212000000000033314421A8
:1003C000212200000000000005124212120000006D
:1003D0000000000051242421555520000000000297
:1003E00022224111111200000000000000541111DE
:1003F0001120000000000000541111111222000011
:10040000000000541111112332000000000054417B
:10041000111233300000000000514411233300005A
:10042000000000000514423330000000000000000E
:10043000512363000000000000000002363000007D
:100440000000000000000363000000000000000046
:100450000003300000000000000000000000000069
:10046000000000000000000000000000000000008C
:10047000000000000000000000000000000000007C
:1004800000000000330000000000000000003233D4
:100490002555500000000555533236211112000039
:1004A0000051111362362144412000051444436277
:1004B00036214441120051444443623621444111E3
:1004C000251441111362332111111111111111134E
:1004D0003233212121212211111113323322121220
:1004E0001200211111133233212121200002111198
:1004F0001332332212120000002111133233222250
:100500002000000002222232220000000000000031
:1005100000002200000000000000000000000000B9
:1005200000000000000000000000000000000000CB
:1005300000000000000000000000000000000000BB
:1005400000000000000000000000000000000000AB
:100550000000032000000000000000000003320043
:100560000000000000000000036320000000000005
:100570000000005136320000000000000005144366
:1005800063200000000000005144113332000000DD
:1005900000000054411113332000000000005411EA
:1005A0001111333200000000005411111112220009
:1005B00000000000541111112000000005555541A4
:1005C00011111200000000514444112222200000A9
:1005D00000051441111200000000003321242111F4
:1005E000120000000000363242121112000000001A
:1005F0000003632121212200000000000036321296
:10060000121200000000000003332121200000002E
:100610000000000033321200000000000000000360
:100620003320000000000000000000332000000024
:100630000000000000000220000000000000000098
:1006400000000333333333333200000000033666D7
:1006500063333332000000000022222222222000D5
:100660000000000051111111112000000000005184
:1006700044111111200000000000514411111120FB
:100680000000000000514411111120000000000082
:1006900002111111120000000000000021111120B0
:1006A0000000000000000002111200000000000025
:1006B0000000002120000000000000000000512088
:1006C0000000000000000000051112000000000002
:1006D00000000051411120000000000000051441FD
:1006E00011120000000000005144121111200000FE
:1006F000000000514421211120000000000051425F
:10070000121211200000000000512421212120009C
:100710000000000033333333332000000000033681
:10072000666333333200000000022222222222229A
:100730000000000000000333333333333200000085
:1007400000033666633333320000000000222222A9
:100750002222200000000000511111111120000080
:10076000000000514411111120000000000051440C
:10077000111111200000000000514411111120003E
:100780000000000002111111120000000000000022
:1007900021111120000000000000000211120000D1
:1007A0000000000000000021200000000000000008
:1007B00000005120000000000000000005111200A0
:1007C0000000000000000051421120000000000065
:1007D00000051441111200000000000051441211E4
:1007E00011200000000000514421111120000000E0
:1007F000000051421212112000000000005124217B
:100800002121200000000000333333333320000067
:1008100000000336666333333200000000022222F8
:10082000222222220000000000000333333333333E
:1008300032000000000336666333333200000000EC
:10084000002222222222200000000000511111115A
:10085000112000000000005144111111200000007F
:1008600000005144111111200000000000514411FA
:1008700011112000000000000211111112000000EF
:100880000000000021111120000000000000000203
:1008900012120000000000000000002120000000F3
:1008A00000000000000051200000000000000000D7
:1008B000051112000000000000000051421120004C
:1008C00000000000000514411112000000000000AB
:1008D0005144121111200000000000514411111167
:1008E0002000000000005142121211200000000000
:1008F0000051242121212000000000003333333334
:1009000033200000000003366663333332000000FA
:1009100000022222222222220000000000000333D3
:10092000333333333200000000033666633333322F
:1009300000000000002222222222200000000000ED
:10094000511111111120000000000051441111112A
:10095000200000000000514411111120000000008F
:10096000005144111111200000000000021111116A
:1009700012000000000000002121112000000000F2
:100980000000000212120000000000000000002120
:1009900020000000000000000000512000000000C6
:1009A00000000000051112000000000000000051CE
:1009B0004211200000000000000514411112000047
:1009C00000000000514412111120000000000051ED
:1009D0004411111120000000000051421211112099
:1009E000000000000051242121212000000000000F
:1009F0003333333333200000000003366663333370
:100A000032000000000222222222222200000000E6
:100A10000000033333333333320000000003366603
:100A20006333333200000000002222222222200001
:100A300000000000511111111120000000000051B0
:100A40004411111120000000000051441111112027
:100A500000000000005144111111200000000000AE
:100A600002111111120000000000000021212120BC
:100A70000000000000000002121200000000000050
:100A800000000021200000000000000000005120B4
:100A9000000000000000000005111200000000002E
:100AA0000000005142112000000000000005144128
:100AB000111200000000000051441211112000002A
:100AC00000000051441111112000000000005144A9
:100AD00012111120000000000051242121212000CA
:100AE00000000000333333333320000000000336AE
:100AF00066633333320000000002222222222222C7
:100B000000000000000003333333333332000000B1
:100B100000033666633333320000000000222222D5
:100B200022222000000000005111111111200000AC
:100B30000000005144111111200000000000514438
:100B4000111111200000000000514411111120006A
:100B5000000000000212111112000000000000004D
:100B600021212120000000000000000212120000DC
:100B70000000000000000021200000000000000034
:100B800000005120000000000000000005111200CC
:100B90000000000000000051421120000000000091
:100BA0000005144111120000000000005144121110
:100BB000112000000000005144111111200000001C
:100BC00000005144121111200000000000512421A6
:100BD00021112000000000003333333333200000A4
:100BE0000000033666633333320000000002222225
:100BF000222222220000000000000333333333336B
:100C00003200000000033666633333320000000018
:100C10000022222222222000000000005111111186
:100C200011200000000000514411111120000000AB
:100C30000000514411111120000000000051441126
:100C40001111200000000000021211121200000019
:100C5000000000002121212000000000000000020F
:100C6000121200000000000000000021200000001F
:100C70000000000000005120000000000000000003
:100C80000511120000000000000000514211200078
:100C900000000000000514411112000000000000D7
:100CA0005144121111200000000000514411111193
:100CB000200000000000514412111120000000002B
:100CC0000051442121112000000000003333333350
:100CD0003320000000000336666333333200000027
:100CE0000002222222222222000000000000033300
:100CF000333333333200000000033666633333325C
:100D00000000000000222222222220000000000019
:100D10005111111111200000000000514411111156
:100D200020000000000051441111112000000000BB
:100D30000051441111112000000000000212121293
:100D4000120000000000000021212120000000000E
:100D5000000000021212000000000000000000214C
:100D600020000000000000000000512000000000F2
:100D700000000000051112000000000000000051FA
:100D80004211200000000000000514411112000073
:100D90000000000051441211112000000000005119
:100DA00044111111200000000000514412111120C3
:100DB000000000000051442111112000000000003B
:100DC000333333333320000000000336666333339C
:100DD0003200000000022222222222220000000013
:100DE0000000033333333333320000000003366630
:100DF000633333320000000000222222222220002E
:100E000000000000511111111120000000000051DC
:100E10004411111120000000000051441111112053
:100E200000000000005124111111200000000000FA
:100E300002121212120000000000000021212120E5
:100E4000000000000000000212120000000000007C
:100E50000000002120000000000000000000312000
:100E6000000000000000000005111200000000005A
:100E70000000005142112000000000000005144154
:100E80001112000000000000514412111120000056
:100E900000000051441111112000000000005144D5
:100EA0001211112000000000005144111111200006
:100EB00000000000333333333320000000000336DA
:100EC00066633333320000000002222222222222F3
:100ED00000000000000003333333333332000000DE
:100EE0000003366663333332000000000022222202
:100EF00022222000000000005111111111200000D9
:100F00000000005144111111200000000000514464
:100F100011111120000000000051241111212000A6
:100F20000000000002121212120000000000000077
:100F30002121212000000000000000021212000008
:100F40000000000000000021200000000000000060
:100F500000005120000000000000000005111200F8
:100F600000000000000000514211200000000000BD
:100F7000000514411112000000000000514412113C
:100F80001120000000000051441111112000000048
:100F900000005144111111200000000000514411C3
:100FA00011112000000000003333333333200000E0
:100FB0000000033666633333320000000002222251
:100FC0002222222200000000000003333333333397
:100FD0003200000000033666633333320000000045
:100FE00000222222222220000000000051111111B3
:100FF00011200000000000514411111120000000D8
:101000000000514411111120000000000051242162
:101010001121200000000000021212121200000034
:10102000000000002121212000000000000000023B
:10103000121200000000000000000021200000004B
:10104000000000000000512000000000000000002F
:1010500005111200000000000000005142112000A4
:101060000000000000051441111200000000000003
:1010700051441111112000000000005144111111C0
:101080002000000000005144111111200000000058
:10109000005144111111200000000000333333339C
:1010A0003320000000000336666333333200000053
:1010B000000222222222222200000000000003332C
:1010C0003333333332000000000336666333333288
:1010D0000000000000222222222220000000000046
:1010E0005111111111200000000000514411111183
:1010F00020000000000051441111112000000000E8
:1011000000512421212120000000000002121212AF
:10111000120000000000000021212120000000003A
:101120000000000212120000000000000000002178
:10113000200000000000000000005120000000001E
:101140000000000005111200000000000000005126
:1011500041112000000000000005144111120000A0
:101160000000000051441111112000000000005146
:1011700044111111200000000000514411111120F0
:101180000000000000514411111120000000000077
:1011900033333333332000000000033666633333C8
:1011A000320000000002222222222222000000003F
:1011B000BC11000808000000080000001100110028
:1011C00005000200F0110008681600080000000089
:1011D000DC110008080000000800000011001100E8
:1011E00005000200F0110008801600080000000051
:1011F000000190000000019000000001900000003C
:101200000190000000019000000001900000040126
:1012100090040019559559006AAAAAAA4019559533
:1012200059000401900400000190000000019000AA
:1012300000000190000000019000000001900000FB
:10124000000190000000000054120008050000009A
:10125000050000000B000B000300020088120008CC
:101260006816000800000000741200080500000065
:10127000050000000B000B000300020088120008AC
:1012800080160008000000000054000064000064A4
:10129000000064005565546A9AA4556554006400C2
:1012A000006400006400005400000000B812000850
:1012B0000A0000000A0000001500150006000200E8
:1012C000EC1200086816000800000000D8120008A0
:1012D0000A0000000A0000001500150006000200C8
:1012E000EC12000880160008000000000000150045
:1012F00000000000190000000000190000000000BC
:101300001900000000001900000000001900000092
:101310000000190000000000190000000000190082
:1013200000005555595555406AAAA6AAAA405555D8
:101330005955554000001900000000001900000038
:101340000000190000000000190000000000190052
:10135000000000001900000000001900000000005B
:1013600019000000000015000000000078130008BC
:101370000F0000000F0000001F001F000800020007
:10138000AC1300086816000800000000981300085D
:101390000F0000000F0000001F001F0008000200E7
:1013A000AC130008801600080000000000000005D3
:1013B00040000000000000064000000000000006A1
:1013C0004000000000000006400000000000000691
:1013D0004000000000000006400000000000000681
:1013E0004000000000000006400000000000000671
:1013F0004000000000000006400000000000000661
:101400004000000000000006400000000000000650
:1014100040000000000000064000000055555556F1
:10142000555555546AAAAAA9AAAAAAA4555555560B
:10143000555555540000000640000000000000060D
:101440004000000000000006400000000000000610
:101450004000000000000006400000000000000600
:1014600040000000000000064000000000000006F0
:1014700040000000000000064000000000000006E0
:1014800040000000000000064000000000000006D0
:1014900040000000000000064000000000000005C1
:1014A00040000000B0140008000000000000000030
:1014B00009000F0003000200E41400086816000889
:1014C00000000000D0140008000000000000000030
:1014D00009000F0003000200E41400088016000851
:1014E000000000004000005000006400006900009F
:1014F0006A40006A90006AA4006AA9006A95406682
:10150000900051A40041A40000690000690000148B
:10151000000000002015000800000000000000008E
:101520000C0014000300020054150008681600089F
:10153000000000004015000800000000000000004E
:101540000C00140003000200541500088016000867
:10155000000000004000005000006400006900002E
:101560006A40006A90006AA4006AA9006AAA406AF8
:10157000AA906AAAA46AA95569A900646A40506A37
:1015800040401A90001A900006A40006A4000150E2
:101590009C150008000000000000000012001E0062
:1015A00005000200D01500086816000800000000C1
:1015B000BC150008000000000000000012001E0022
:1015C00005000200D0150008801600080000000089
:1015D00040000000005000000000640000000069AE
:1015E000000000006A400000006A900000006AA449
:1015F0000000006AA90000006AAA4000006AAA90E0
:1016000000006AAAA400006AAAA900006AAAAA4067
:10161000006AAAAA90006AAAAAA4006AAAAAA900B3
:101620006AAAAAAA406AAA9555506A9A9000006AC6
:1016300046A400006906A400006401A9000050014E
:10164000A9000040006A400000006A400000001A43
:10165000900000001A9000000006A400000006A4FC
:101660000000000150000000030000000100000025
:1016700074160008FF000000FFFFFF0000000000DC
:1016800003000000010000008C160008FF000000AD
:1016900000000000FFFFFF002DE9F14FB2B09946B6
:1016A000924600230691CDE900333C9A0F930DF149
:1016B0004A0114914A7011E0329E57462C4617F8A1
:1016C000011B0698B0470028069000F026810F986D
:1016D000401C641E0F90F2D13296AA449AF8000082
:1016E000252808D10021002209910A920B910C9221
:1016F0000D910E920FE06A464FF0FF31504601F017
:101700007FF8050002D10F9800F066BED4D5012500
:10171000E3E741F001011AF8010F2028F9D023284E
:101720000CD02B2804D02D2805D0302809D00BE070
:1017300041F00201EFE741F00401ECE741F008015C
:10174000E9E741F01001E6E72A280FD1D9F8002097
:1017500052F8040BC9F800200028119003D540422C
:10176000119041F004010AF1010A14E01192DFF82E
:10177000EC3B0AE01198984205DA00EB800402EB9A
:101780004402303A11920AF1010A9AF80020A2F1BB
:1017900030000A28EED39AF800002E2803D04FF02C
:1017A000FF32109229E01AF8010F2A2809D1D9F83E
:1017B000000050F8042BC9F8000010920AF1010A49
:1017C0001BE02D280CBF0AF1010A00200022109214
:1017D000DFF8882B0BE040B9109B934205DA03EB4E
:1017E000830504EB4504303C10940AF1010A9AF891
:1017F0000040A4F130030A2BEDD3ADF848100FF6EA
:1018000060309AF8001001F005F808B11AF8010BE1
:101810008DF84A009DF84A00682805D19AF8000022
:1018200068280CD1622106E06C2804BF9AF80000F9
:101830006C2804D171218DF84A100AF1010A1FA801
:1018400008901AF801BBBBF125012DD01C3900F01E
:101850006181091F022940F25D810E392AD0491F9A
:1018600000F0B384093900F05581891E00F04985E4
:10187000491E00F0F584491E022940F24B81091FE0
:1018800000F0EE84491F00F0BA80491E00F09D84EC
:10189000491E65D0C91E21D0891E00F09684C91E3C
:1018A00000F0938400F04CBD25238DF87C3001219D
:1018B00009912AE06C208DF84A00D9F8000050F810
:1018C000042BC9F80000002A43D114994878002855
:1018D0003DD04FF0FF340FF6902012E09DF84A0003
:1018E0006C28EAD0D9F8000050F8044BC9F8000081
:1018F0000794D4B91499487898B14FF0FF340FF693
:10190000842000F0A1FF201A07D132981FAA04A951
:1019100000F065FD00287FF5E1AE4FF0FF3000F0EC
:101920005BBD0FF67C200790EFE7109D002D04D5DE
:10193000204600F0A9FF044607E02A46204600F0B2
:10194000CBFF002814BF041B2C460A94DDE70FF6DA
:101950005422329804A900F0C8FD0028D5D5DCE750
:10196000D9F8001051F8040BC9F8001020F0000459
:10197000002121F0FF351FABCDE904450793DDE9D8
:10198000042308993C2413B90AB9109898B102F0BD
:101990000F053035641EEEB23A2EA8BF2735120966
:1019A00042EA03721B090D5508BF002A03D00798AD
:1019B0000D19A842EBD308190790C4F13C02109806
:1019C0000A92824209DABDF84810821A4FF6EF7087
:1019D00001400C92ADF8481097E7002895D59DF886
:1019E000480000F0140010288FD1119B09990C9821
:1019F0005B1A1B1A9A1A002A87DD0C9285E7149944
:101A0000487820B14FF0FF340FF69C1079E79DF82D
:101A10004A00622862D0682819D06A2840D06C2811
:101A200006D071284DD074282DD07A281ED064E0BD
:101A3000D9F8001051F8040BC9F8001020B94FF084
:101A4000FF340FF67C105CE70F9901605DE7D9F871
:101A5000001051F8040BC9F8001020B94FF0FF3402
:101A60000FF65C104DE70F9901804EE7D9F8001092
:101A700051F8040BC9F800100028E5D14FF0FF34ED
:101A80000FF63C103DE7D9F8001051F8040BC9F8E7
:101A900000100028D8D14FF0FF340FF6241030E7A3
:101AA000D9F8001051F8040BC9F8001020B94FF014
:101AB000FF340FF60C1024E70F9AD317C0E9002368
:101AC00023E7D9F8001051F8040BC9F800100028DA
:101AD000F2D14FF0FF340FF6E80012E7D9F800100A
:101AE00051F8040BC9F8001020B94FF0FF340FF67D
:101AF000D00006E70F99017007E7D9F8001051F8F8
:101B0000040BC9F8001000289ED14FF0FF340FF6E7
:101B1000B000F6E6D9F80020D21D22F00702C9F87D
:101B20000020D2E900010832C9F80020CDE9040103
:101B3000C80F02D009982D210AE0BDF8480081079E
:101B400002D509982B2103E0C00705D5099820216B
:101B50001FAA1154401C0990DDE9042309991FA80C
:101B6000CDE92E2308444BF020016129079015ACE4
:101B70000BD01099002902D50621109105E001BF74
:101B80004BF02001672901221092DDE9042359005E
:101B90004915491C10D11A030ED0ABF16105032180
:101BA0001A2D0A9102D20FF6A43101E00FF6A031EE
:101BB000032200F0BDFEA8E659004915491C0AD1D0
:101BC0001A0308D1ABF1610503211A2D0A9116D32E
:101BD0000FF68431ECE7DDE90401CDE93001DDE900
:101BE000302323F00047B7F5801F22F000060DD206
:101BF0000022002F08BF002E029203D116E00FF63C
:101C00005431D5E702AA00F0F3FE0FE0DFF8EC0A4A
:101C1000DFF8EC1A00EB17500290DDE930234FF0AB
:101C2000FF301940DFF8DC7A10403943CDE9040178
:101C30004BF0200061280DD1079830210170821CE3
:101C4000BBF1610F07920CBF7821582141700998B0
:101C5000801C0990DDE9040120F0000231F000430E
:101C600008BF002A02D10026002571E14BF02008B0
:101C7000B8F1610F40F0BE801098002847BF2121C5
:101C80000391401C0390039FDDE92E017F1C00227D
:101C90000023DDE9044500F0E3FE02998DF85420AD
:101CA00038BF85F00045091F002F02910DF1550640
:101CB0005DDDDFF8541ACDE9302140F2FF732E9339
:101CC000204629460022002300F0E2FE4FD24800C1
:101CD000400D00F11C0215D0002A13DD2E9B9A4204
:101CE0000ADBDDE9300121F0004205F0004002434B
:101CF000DDE93001114611E06FF31E5141EA025156
:101D000020460BE024F0000035F0004108BF002819
:101D10000FBF29461C22294600F0D2FE04460D467C
:101D200000F050FFFF1F002F804609DD00F051FF3B
:101D300002460B462046294600F052FF04460D4657
:101D4000F01D0721B8F1000F0CDD491E5EBF08F041
:101D50000F0200F8012D4FEA2818F3D502E0002207
:101D600000F8012D491EFAD5C61D002FA8DC0DF183
:101D70005500361A03988642D8BF304600280DF128
:101D8000550430D4B04206DA0DF155010A5C082A38
:101D9000A8BF0F2100DA0021024615AB134400E072
:101DA000401E13F80159521E8D42F9D00F2904D15B
:101DB0000DF155018B5C5B1C8B54002A04D50299F4
:101DC000091D15AC401C0291411E0CD46218ABF1E8
:101DD0003A0613783033DDB23A2DA8BFF318491E06
:101DE00002F80139F5D51099002940F1AF80421E63
:101DF0001092ABE00299DFF8142947F29750414363
:101E000091FBF2F2DDE92E45029225F00045D2F178
:101E1000070204DD2046294600F04CFC0BE052424C
:101E20000020DFF8EC1800F045FC02460B46204687
:101E3000294600F0DEFE0446B8F1660F109806BF92
:101E4000029F0A3706273F18142FC8BF14273020D7
:101E50008DF854000D460020DFF8B818CDE92E01AA
:101E60000DF15506002F33DD2046294600F0CAFE4D
:101E700001460A4606F1080304200A26B2FBF6F6DC
:101E800006EB860EA2EB4E02303203F8012C0A223A
:101E9000B6FBF2F202EB820EA6EB4E063036401E87
:101EA00003F8026DE9D1083F002F03F10806D9DDE0
:101EB000084600F0AEFE02460B462046294600F0DA
:101EC0008FFEDDE92E2300F0ABFE04460D46CBE786
:101ED0000DF15500361A0DF1550404E00298401E2C
:101EE000761E0290641C20783028F7D0B8F1660F77
:101EF00002D10299491C04E0B8F1650F0CBF012121
:101F00000021109808188642B8BF701E00281DD402
:101F1000B04204DA215C3429C8BF392100DC302109
:101F20000246631E9D1800E0401E15F80169521E0E
:101F30008E42F9D0392902D1A15C491CA154002A52
:101F400004D50299491C1C46401C02910646029D7C
:101F500000F05AFC406A0778DDF8408030B2002873
:101F600002DC01260FF2F4744BF02000662808BF53
:101F70006D1C16D0672846D128B210F1040F48DB3B
:101F8000404546DA9DF848006D1C010703D430B285
:101F90004045B8BF804628B2B8EB000848BF4FF0B4
:101FA00000080FFA85FB07980A99BBF1000F00F3B0
:101FB000B2804A1C0A9230234354B8F1000F03DC6C
:101FC0009DF84800010704D50A98411C0A91079919
:101FD0000F5418EB0B0FB8BFC8F100052DB26842C3
:101FE0000D90A84432B29045B8BF4646079B0A9868
:101FF00036B20B9632462146184400F099FCA8EB05
:1020000006000E90CBE0BBF1610F17D14FF0700BC3
:1020100019E030B2404504DA9DF848100A0758BF6D
:102020008046B8F1010848BF4FF00008BBF1670FC8
:1020300014BF4FF0450B4FF0650B04E0BBF1410FAF
:1020400008BF4FF0500B0A98411C0A91B8F1000FDD
:10205000079914F8012B0A5403DC9DF84800010786
:102060001AD50A98411C0A91B8F1000F07990F542C
:1020700012DD761E30B2804507980A9BB8BF4646EF
:1020800032B22146184400F053FC0A9936B2711856
:102090000A91A8EB06000D9007980A9908442AB205
:1020A000002A80F800B003D42B224270811C04E087
:1020B0002D2141701546811C6D4200202EAA0A2454
:1020C00009E02B4693FBF4F505EB8506A3EB4603ED
:1020D00002F8013B401C2DB2002DF2DC012806DC89
:1020E0004BF02002652A04BF302201F8012B0028A2
:1020F0002EAA08D1302001F8010B06E0401E135C27
:10210000303301F8013B0028F8DC079A0A981044A4
:10211000091A0B9143E0084431B22AB2914219DA0C
:1021200032B2214600F004FC0A9936B27118ABEBCA
:102130000606B8F1000F0A910D9603DC9DF84800E1
:10214000020704D5079847540B99491C0B91CDF809
:10215000388024E0214600F0EBFB0A98761B5844B7
:10216000B8F1000F0A9003DC9DF848100A0703D568
:10217000411C0A9107990F5430B2804507980A9B79
:10218000B8BF464632B204EB0B01184400F0D0FB56
:102190000A9836B230180A90A8EB06000D909DF808
:1021A000480000F0140010287FF4AFAB099A0A9998
:1021B0000D988A180B9982180E988A18821811980F
:1021C0008242BFF6A2AB821A17E49DF84A00622849
:1021D00008D068280ED06A2814D06C281FD0712827
:1021E00010D01CE0D9F8001051F8040BC9F8001009
:1021F000C0B21AE0D9F8001051F8040BC9F8001069
:1022000080B212E0D9F80020D21D22F00702C9F8EE
:102210000020D2E900010832C9F8002006E0D9F810
:10222000001051F8040BC9F800100021CDE9040199
:102230009DF8480001075AD5DDE90423002B08BFAB
:10224000002A54D04BF02000782850D109981FA9BB
:1022500030220A54401C431C099301F800B046E0A8
:102260009DF84A00622808D068280ED06A2814D049
:102270006C281FD0712810D01CE0D9F8001051F83C
:10228000040BC9F8001040B21AE0D9F8001051F858
:10229000040BC9F8001000B212E0D9F80020D21DDA
:1022A00022F00702C9F80020D2E900010832C9F87B
:1022B000002006E0D9F8001051F8040BC9F800100E
:1022C000C117CDE90401002902D509982D210AE0A2
:1022D000BDF84800810702D509982B2103E0C0070B
:1022E00005D5099820211FAA1154401C09901FA848
:1022F00009990144079104A8594600F056F9FFF7DF
:1023000004BB9DF84A006C280BD001210991D9F833
:10231000000050F8041BC9F800008DF87C10FFF78E
:10232000F4BAD9F8000050F8041BC9F80000159160
:102330004FF0FF3210920021169115AAFFF709BB4A
:1023400025210122BBF1000F8DF87C1009923FF48A
:10235000DCAA8DF87DB00221FFF7AABACBCCCC0C59
:10236000686A6C747A4C00007072696E74665F7390
:102370003A2062616420256C7320617267756D6517
:102380006E7400007072696E74665F733A206261E9
:102390006420257320617267756D656E740000009E
:1023A00000000000000000007072696E74665F73C8
:1023B0003A20256E20646973616C6C6F77656400E8
:1023C0007072696E74663A2062616420256E2061C5
:1023D0007267756D656E740033B0BDE8F08F2DE9DE
:1023E000FC410F46064690467A6B7869396ABC6AAA
:1023F000121AB869521A796A121AF869521A121A1C
:1024000097F83800141B41070FD42020002C8DF8BA
:1024100000000ADD254601236A463946304600F0B1
:102420007DF900285DD16D1EF5D17B6942463946A4
:10243000304600F073F9002853D130208DF80000A9
:102440003D6A002D09DD01236A463946304600F019
:1024500065F9002845D16D1EF5D1BB69FA6839468A
:10246000304600F05BF900283BD130208DF80000A9
:102470007D6A002D08DD01236A463946304600F0AA
:102480004DF970BB6D1EF6D1F868B969FB69421849
:102490003946304600F042F918BB30208DF8000074
:1024A000BD6A002D08DD01236A463946304600F03A
:1024B00035F9B0B96D1EF6D197F8380041070DD542
:1024C0002020002C8DF8000008DD01236A463946E3
:1024D000304600F023F920B9641EF6D10020BDE893
:1024E000F6814FF0FF30BDE8F6812DE9F8470D4643
:1024F000A3B02F6B002F8246904648BF6FF0004775
:1025000000F097FB696B401801AA0021C2E9001195
:10251000812828BF4FF0FF3044D289461EE0A742F1
:1025200030DB6869201881280BD30021696303AA76
:1025300029465046FFF753FF5FEA000922D40020E6
:10254000686103AB6E6922466946981900F0F0F99C
:10255000A6196E6158F8040BA0B13F1B002F11DDC6
:10256000D8F8001001AA684600F04CF90446002C87
:1025700005D4D8F800000028D1D1641ECFD54FF083
:10258000FF390EE0B9F1000F504604D103AA2946E5
:10259000FFF725FF8146B9F1000F02D100206861E5
:1025A0006863484624B0BDE8F0872DE9FC43074640
:1025B0006F293E6908BF082405D041F02000782823
:1025C00014BF0A2410243C25D7E90023642918BF2E
:1025D00069299046994605D1002B03D5D8F100080A
:1025E00069EB4909B9F1000F08BFB8F1000F0CD130
:1025F000386B50B9082C39D197F83800010735D518
:1026000030203B2586F83B0030E08DF80010404636
:1026100049462246E31700F011FB3032D0B26D1E5E
:102620003A28019504DB9DF80000A0F151018A18B9
:102630007255404649462246E31700F0FFFA8046AD
:102640005FEA010908BFB8F1000F03D0F8687119FB
:102650008842DCD3082C09D197F83800010705D54A
:10266000705D302802D06D1E30207055C5F13C02DF
:10267000BA617119F960386B824208DA821A3A62DB
:102680004FF6EF70398F01403987BDE8F38300289A
:102690000ED597F8380000F01400102808D17B6B95
:1026A0007969386A5B1A1B1A9A1A002AC8BF3A62FB
:1026B000BDE8F3832DE9D04306460F4614464FF09C
:1026C0000008DFF8549012E0E00707D542464B4679
:1026D0003046394600F0A4FA06460F4640464946C1
:1026E00042464B4600F09CFA641080468946002C16
:1026F000EAD130463946BDE8D083000002FCFFFF36
:10270000FFFF0F800000E03F0000F07FA086010087
:102710000000F03F84D7974100002440F8B50546FB
:102720000E4617461C4600205CB117F8011BB06826
:10273000A847B06030B1F06A401CF0620020641E0F
:10274000F3D1F2BD4FF0FF30F2BD00006E616E00BC
:102750004E414E00696E6600494E4600300030B46E
:10276000002513E050F8042BD30744BFA9F101035F
:102770009A18091F042942F8045BFAD213468C0701
:1027800044BF15809B1CC90748BF1D7050F8041B2F
:102790000029E7D130BC70471C48704770B45368BB
:1027A000D41801E05B1C491E042B08DA00291FBF66
:1027B000057804F8015B10F8016B002EF2D153602C
:1027C00070BC704738B514461D4661B1FFF7E6FF8F
:1027D00061686A6B204690476FF00102811A02D04F
:1027E000491E01D001E003E005E00021616032BD37
:1027F0006FF0010032BD4FF0FF3032BDDA6B104791
:10280000024BDFE7014BF9E7014870476002002007
:1028100028020020C9B202788A421AB11CBF10F8FF
:10282000012FF9E718BF00207047B1F5807F02D370
:102830004FF0FF3070470170012070470078401E54
:102840008041C043C00F704780B500B906A005495C
:102850000B681BB122220021984701E000F006FB23
:10286000222002BD505D0020636F6E737472616937
:102870006E742068616E646C65723A2062616420D7
:102880006D6573736167650000F10103810704D012
:1028900010F8011B820781B1FAD10268A2F101315F
:1028A000914311F0803104BF50F8042FF6E709BAC4
:1028B000B1FA81F100EBD100401CC01A7047826868
:1028C000521C8260426832B10268531C036011706E
:1028D0004168491E41607047C9B2830706D0521E45
:1028E00022D310F8013B9942F7D11FE0083A13D3E5
:1028F00002F1040241EA012141EA014150F8043B9E
:10290000121F21BF4B40A3F1013C2CEA030C1CF029
:10291000803FF3D0C9B2001F083210F8013B521EAD
:1029200028BF91EA030FF8D818BF0120401E704756
:1029300062B38B0708D0521E11F8013B00F8013B2F
:1029400000F024808B07F6D1830740F0208000BF81
:10295000103A07D330B4B1E83810103AA0E8381074
:10296000F9D230BC530724BFB1E80810A0E8081022
:1029700044BF51F8043B40F8043BD20724BF31F870
:10298000022B20F8022B44BF0B7803707047121FF4
:1029900017D35B0009D151F8043B20F8023B1B0C14
:1029A000121F20F8023BF6D20BE051F8043B00F86E
:1029B000013B1B0A20F8023B1B0C121F00F8013BD5
:1029C000F3D238BF121D521E24BF11F8013B00F88C
:1029D000013BF8D870470000024651EC100B10B5CF
:1029E000144600F00BF841EC100B226010BD000003
:1029F00010B5144600F002F8226010BDC1F30A536E
:102A000043B14A0012F5001F28D2A3F2FE32A1EB17
:102A10000251704750EA410C20D001F0004C31EADD
:102A20000C01B1FA81F204BFB0FA80F3D2180B3A6C
:102A3000B2F120032CBF00FA03F1914041EA0C01EE
:102A40003EBFC2F1200C20FA0CF3194390405242D1
:102A500040F2FD33D21A01EB035170470022704758
:102A60004FF4001C1CEB410F94BF1CEB430F09E01B
:102A700041EA030C50EA4C0C52EA0C0C03D2994286
:102A800008BF9042704714BF8B428242704700805B
:102A90004FF4001C1CEB410F94BF1CEB430F09E0EB
:102AA00041EA030C50EA4C0C52EA0C0C03D28B4264
:102AB00008BF8242704714BF994290427047C430A9
:102AC00041EC100B104600B500F004F851EC100B6F
:102AD00000BD0000020030EE101B40F2FF7C37D436
:102AE0001CEA115313D063456BD09B18634504D285
:102AF00001EB025120EE101B704701F0004141EA4A
:102B00000C51002041EC100BAFF30080704710EE29
:102B1000100B50EA410054D0B2F57F7F08D202EB8F
:102B20005C010905002041EC110B20EE010B704700
:102B30004FF0FE41002341EC113B20EE010BB2F5BA
:102B40007E7230EE101B4FEA410342EB5353CDE748
:102B500052421CEA115316D0634532D09A4204D235
:102B6000A1EB025120EE101B70475B1ED21AA1EBA5
:102B7000035120EE101B372A0CD3002001F0004136
:102B800041EC100BC0E710EE100B50EA410018D0DA
:102B9000372AF2D2C2EB5C021105002041EC110B86
:102BA000F1EE100A20F01F0121F4F851E1EE101AA5
:102BB00020EE010BF1EE101AE1EE100A11F0080FF1
:102BC000A2D1704741EC100BBDEEC00B10EE100A05
:102BD000704700EE100AB8EEC00B51EC100B7047B6
:102BE00041EC100B43EC112B30EE410B51EC100B70
:102BF000704741EC100B43EC112B80EE010B51ECB4
:102C0000100B704741EC100BBCEEC00B10EE100A1D
:102C1000704700EE100AB8EE400B51EC100B7047F5
:102C200041EC100B43EC112B20EE010B51EC100B7F
:102C3000704780B5FFF7B0FD006C02BDBBBBE1B1D2
:102C4000B2F5803F80F07E80022A1ED98C46B1FB0F
:102C5000F2F102FB11C31B0443EA1043B3FBF2FC85
:102C600002FB1C3380B240EA0343B3FBF2F002FBE9
:102C7000103240EA0C4000237047022A05D98446EE
:102C8000B0FBF2F002FB10C270474AB105D100F070
:102C9000010249085FEA30007047002200237047B4
:102CA00000F0E8B80B0002000021002070479042BD
:102CB00071EB030CF6D3B3F5803F2FD2F0B5B3FA26
:102CC00083F7B1FA81F4A7F10F0E3D1B5340CEF10B
:102CD000200602FA0EF2F3415340B5F10F0746D831
:102CE0000F3C2C444140C4F12006A040F14141403A
:102CF000B1FBF3F603FB1611A2FB0645001BA9412D
:102D000002D2761E8018594180EA010221FA0EF3A0
:102D100062FA0EF200215A403046F0BD30B4B1FBE9
:102D2000F3FC03FB1C11A2FB0C45001BA94103D2C1
:102D3000ACF1010C8018594130BC02460B4660468C
:102D400000217047B2F1807F65D3F0B5B2FA82F707
:102D5000B1FA81F4C7F10F063D1B22FA06F307F121
:102D6000110EF24120355A40B5F10F07B8D9414054
:102D7000C4F12006A040F1414140B1FBF3FC03FB4C
:102D80001C11A2FB0C45001BA94103D2BCF1010C94
:102D9000801859410F2F12D30F3FC90341EA504108
:102DA000B1FBF3F603FB1611A2FB0645D4EBC030D2
:102DB000A94102D2761E8018594146EACC3C07B39D
:102DC0004140C7F12006B840F1414140B1FBF3F664
:102DD00003FB1611A2FB0645001BA94102D2761E79
:102DE0008018594180EA010221FA0EF3C7F120044C
:102DF00062FA0EF20CFA07F05A402CFA04F1304352
:102E0000F0BD80EA010221FA0EF3002162FA0EF20F
:102E100060465A40F0BD8C46B1FBF2F102FB11C393
:102E20001B0243EA1063B3FBF2FC02FB1C331B02E0
:102E30004CEA002043EA1063B3FBF2FC02FB1C33B4
:102E40001B024CEA002043EA1063B3FBF2FC02FBD6
:102E50001C331B024CEA002043EA1063B3FBF2FC74
:102E600002FB1C324CEA002000237047012000F0D6
:102E700003B8008A7047C44080B5AFF30080024AAF
:102E800011001820ABBEFBE7260002003EB504008F
:102E90000D00022C09D2687800902B7815220021B1
:102EA000DFF8040C01F0F9FA09E00195285D0090C3
:102EB000230039220021DFF8F00B01F006FB37BDBB
:102EC00010B586B0DFF8E40B016851F400710160C1
:102ED000006810F40070009000984FF400400190DA
:102EE000012002900120039003200490DFF8C04BE2
:102EF00001A9200001F05AFB00224FF400412000FC
:102F000001F050FD142001F07BFD01224FF400413F
:102F1000200001F047FD0A2001F072FD06B010BD4F
:102F200080B5DFF8900B016851F0806101600168A5
:102F300011F0806100910099DFF87C1B0A6852F063
:102F400080620A600A6832F080620A60DFF85C2BF7
:102F5000136853F400031360126812F40002009225
:102F6000009ADFF8DC2D136853F400031360136834
:102F700033F400031360026852F0006202600068DC
:102F800010F0006000900098086850F00060086041
:102F9000086830F00060086000220F21622001F014
:102FA000A5FD622001F0B7FD01BD10B5DFF8A44D0D
:102FB000200001F054FE012060610120A061022088
:102FC000E061022020624FF4F170A062CA206062CA
:102FD00040F2E3102063CB20E062002084F834004C
:102FE000002084F83500002084F83600002060605E
:102FF0000020A0600020E06000202061DFF8580D74
:103000002060200001F098FD10BD30B5ABB0FFF797
:1030100057FFFFF785FF0820079040F2A1100C90A2
:1030200007200E900020129007A802F005F9DFF8A3
:103030002C4DDFF8880A2060200000F0D2FFDFF876
:10304000801A642008600520486000208860012004
:10305000E0600420A060200000F0EDFEDFF8641ABC
:103060000020086000204861002088610020C861BD
:1030700000204860C82088601020C86000200861D7
:10308000002008620020486201208862200001F0D0
:1030900081F8DFF8345A4FF4807028604FF40070E4
:1030A00068604FF48060A8604FF40060E8604FF4FF
:1030B000805028614FF4005068614FF48040A8614F
:1030C0005FF48030E8615FF4003028625FF48020B4
:1030D00068625FF40020A8622900200001F0F5F882
:1030E000FFF763FF200001F097F9002000902823EC
:1030F00015220021200001F0D0F9DFF8481C232020
:10310000086023204860232088602320C8600020B6
:1031100008610A204861200001F031F901210220F4
:1031200002F08AFB00202860002068600020A86070
:103130000020E86000202861002068610020A8616C
:103140000020E86100202862002068620020A86258
:103150002900200001F0B9F80421200001F0F8F85E
:10316000DFF84809016851F400710160006810F44B
:10317000007000900098042002900220039000202C
:103180000490032005900D20069002A9DFF8200985
:1031900001F00CFA00200190002000904FF4F07331
:1031A0004FF448725FF04041002000F0B3F8200077
:1031B00001F05FF92BB030BD78B58DB004000D0083
:1031C00000200090C8200190002002904FF4F0767B
:1031D0000396200000F01FF804900995FF20059049
:1031E0000020069000208DF8300000208DF831007E
:1031F00000208DF832004FF4C0600790072008903F
:10320000C8200A900B9622006946DFF8480B01F0AF
:1032100036FD0EB070BD0100002901D1022000E092
:10322000032070472DE9F04704000D0016001F0031
:10323000DDF82080DDF82490DDF828A02000FFF7DD
:10324000EAFFDFF81C1B4FF400720A60DFF8142B52
:103250001560DFF8142B1660DFF8102BC2F8009011
:10326000DFF80C2BC2F800A0DFF8082B10604246F4
:1032700092B252EA0742DFF8003B1A600A6852F045
:1032800001020A600A68D207FCD4BDE8F0872DE984
:10329000F04704000D0016001F00DDF82080DDF867
:1032A0002490DDF828A02000FFF7B5FFDFF8B01A62
:1032B000DFF8C82A0A60DFF8AC2A1560DFF8A82A10
:1032C0001660DFF8BC2A1660DFF8A02AC2F800906A
:1032D000DFF89C2AC2F800A0DFF8A82AC2F800A0F4
:1032E0000022DFF8903A1A60DFF89C2A1060DFF8BD
:1032F0009C2A1060424692B252EA0742DFF8783ABE
:103300001A600A6852F001020A600A68D207FCD407
:10331000BDE8F0872DE9F84304000D0016001F00FA
:10332000DDF82080DDF824902000FFF774FFDFF83F
:10333000301ADFF85C2A0A60DFF8582AC2F80090D9
:10334000DFF8242A1560DFF8282AC2F80080DFF8A9
:103350003C2A10603A0092B252EA0642DFF8183A6C
:103360001A600A6852F001020A600A68D207FCD4A7
:10337000BDE8F18310B401001C23DFF81C4A03FBF5
:1033800001F02044C06803FB01F22244126950435B
:10339000594321444969484310BC70472DE9FE4F09
:1033A00004000D0016002000FFF7E4FF07005FF0A7
:1033B0001C08DFF8E49908FB04F059F800A005FBAD
:1033C00007AA08FB04F059F800B006FB07BB002071
:1033D00002900020019008FB04F04844006900902E
:1033E00008FB04F04844C3685A4651462000FFF7E2
:1033F00019FF08FB04F809EB08008660BDE8F78FA9
:103400002DE9F34F83B0040015001E000E9FDDF878
:103410003C802000FFF7AEFF81461C21DFF87829B1
:1034200001FB04F052F800A001FB04F010444068D6
:1034300000FB09AA01FB04F01044C368049803FBD5
:10344000050301FB04F01044406900FB03AA01FBE3
:1034500004F052F800B001FB04F01044406800FB97
:1034600009BB01FB04F01044C36803FB076301FBC5
:1034700004F01044406900FB03BB0020029001FBF4
:1034800004F102EB0100C068B0EB08000190109855
:10349000009043465A4651462000FFF7C3FE05B050
:1034A000BDE8F08F2DE9FE4F04000D0016001F004F
:1034B000DDF8308002F022FC012811D10022192110
:1034C000200002F027FC43463A003100280002F0B9
:1034D0003BFCDFF8C8281921200002F01BFC36E075
:1034E000781B401C8246B8EB0600401C8346200037
:1034F000FFF740FF02901C21DFF89C2801FB04F03D
:103500001358DDF808C001FB04F01044806800FB8C
:103510000C3301FB04F01044D0F80CC00CFB065C2B
:1035200001FB04F01044406900FB0C3399460D98F0
:10353000019001FB04F102EB0100C068B0EB0A004E
:1035400000905B46524649462000FFF7E3FEBDE887
:10355000F78FF0B5059C069D079EDFF804785FF4B1
:10356000813CC7F800C0DFF8FCC7CCF80000DFF8EA
:10357000F8C7CCF80010DFF8F4C7CCF80020DFF86B
:10358000F0C7CCF800305FF0050CDFF8E8E7CEF8C4
:1035900000C0DFF8F8C7CCF8004056EA054CDFF869
:1035A000D8E7CEF800C0D7F800C05CF0010CC7F82F
:1035B00000C0D7F800C05FEACC7CFAD4F0BD2DE99A
:1035C000F64F83B004001D000E9E109F2000FFF7F1
:1035D000D1FE80461C21DFF8C02701FB04F0105803
:1035E00001FB04F31344D3F8089009FB0809049B7A
:1035F00001FB04F01044D0F80CC003980CFB03034B
:1036000001FB04F01044406900FB0399022097FB82
:10361000F0FABAEB060A01FB04F102EB0100D0F864
:103620000CB0BBEB060BCDF808B0CDF804A00F989A
:10363000009033004A4629002000FFF7F3FD05B053
:10364000BDE8F08F2DE9F64F83B004001D000E9EFB
:10365000109F2000FFF78EFE80461C21DFF83827E0
:1036600001FB04F0105801FB04F31344D3F8089055
:1036700009FB0809049B01FB04F01044D0F80CC0BE
:1036800003980CFB030301FB04F01044406900FBAA
:103690000399042097FBF0FABAEB060A01FB04F148
:1036A00002EB0100D0F80CB0BBEB060BCDF808B074
:1036B000CDF804A00F98009033004A46290020005E
:1036C000FFF7E5FD05B0BDE8F08F2DE9F74F84B0B9
:1036D00004001D00109E129F2000FFF74BFE804645
:1036E0001C21DFF8B42601FB04F0105801FB04F3A1
:1036F0001344D3F8089009FB0809069B01FB04F06A
:103700001044D0F80CC005980CFB030301FB04F037
:103710001044406900FB0399B81B039001FB04F1BE
:1037200002EB0100D0F80CA0BAEB060A2000FFF76C
:1037300072FD8346119802900196CDF800B0534671
:10374000039A49462800FFF704FF07B0BDE8F08F51
:103750001CB50400DFF8480600EB840001902A2025
:103760000090042339220021DFF8F00500F0ADFEBF
:1037700013BD2DE9F04105000024DFF8286630680C
:10378000002825D100200400002C18D11C27DFF8C8
:10379000088607FB04F04044406800280DD407FB6E
:1037A00004F040444168200002F0FEFA5FF0FF3070
:1037B00007FB04F708EB07014860641CE4E70120FD
:1037C00030600120DFF8E0150860280000F051FEAD
:1037D000BDE8F0817CB505000020DFF8CC150A6853
:1037E000042A50DA0122DFF8BC351A600022009268
:1037F0002A68D2F8042432F008022B68C3F80424A3
:103800002A68D2F8042412F008020092009A0024D8
:10381000002C16D1DFF83C050268802000FB042252
:103820008432DFF8880550F824300E684FF4487071
:103830004643042096FBF0F013EB40039362641CB4
:10384000E6E7DFF810050268526A52F001020068EC
:103850004262002000902868D0F8040450F008006C
:103860002A68C2F804042868D0F8040410F008009C
:10387000009000980868421C0A60FFF769FF280062
:1038800000F0F7FD42E00021DFF81825116000216B
:10389000009185490A68D2F8042432F008020B68C6
:1038A000C3F804240A68D2F8042412F00802009233
:1038B000009A0024002C0DD1DFF8980402688020C3
:1038C00000FB04228432DFF8E40450F82400906204
:1038D000641CEFE7DFF87C040268526A52F00102D0
:1038E00000684262002000900868D0F8040450F09C
:1038F00008000A68C2F804040868D0F8040410F04C
:103900000800009000980020FFF722FF73BD3EB52D
:1039100040F21B14DFF89804210089B2090A0170F3
:103920004470DFF83854019044200090022339227B
:103930000021280000F0C9FD002000903523152249
:103940000021280000F0A9FD37BD7CB50025002D21
:1039500005D10321280002F03DFA6D1CF7E7002392
:103960000022DFF85014DFF8500402F053FA002070
:1039700002F0E8FA00280ED04FF448724FF4F071CC
:10398000002002F0EFFA4FF448724FF4F07100207B
:1039900002F002FB0DE04FF4F0724FF4487100208A
:1039A00002F0E0FA4FF4F0724FF44871002002F098
:1039B000F3FADFF8E4635FF0404030600024002C4D
:1039C00042D11C25DFF8F40350F8240005FB04F174
:1039D000314488615FF0FF3005FB04F131444860F9
:1039E000200002F0F3FAC01005FB04F131444861F5
:1039F000DFF8CC232121200002F08CF9DFF8C4236A
:103A00002321200002F086F9DFF8902319212000FD
:103A100002F080F9DFF8B0232521200002F07AF9C6
:103A2000DFF8A8232421200002F074F9DFF8A02396
:103A30002821200002F06EF905FB04F571592000E1
:103A400002F0D4FA641CBAE7FFF7DFFA5FF04041F6
:103A50000020FFF7B1FB144DD14801902A200090BF
:103A6000042339220021280000F02FFDD9480190BD
:103A70002B200090042339220021280000F025FD8E
:103A800000224FF44871B34801F025FA322000F0CB
:103A9000B7FFFFF73CFF00200090292315220021EB
:103AA000280000F0FAFC73BDE859002030380240CD
:103AB000002402404438024024380240006C014097
:103AC000A05B002004590020E45700202DE9FF47A7
:103AD0000700884691465FF0000A4046032817D049
:103AE000052853D0062859D0072800F0DC80082884
:103AF00000F0D080092859D00A2800F0EE800C2868
:103B000000F0F2800D2800F0FD800E281BD00FE1A0
:103B10001C21A14A01FB07F01358D9F804C001FB8E
:103B200007F01044C06800FB0CFC01FB07F102EB3E
:103B30000100406900FB0C331C003A00210085485D
:103B400001F0A2F9F7E04E461C21934A01FB07F071
:103B5000135801FB07F01044D0F80CC001FB07F02C
:103B60001044006900FB0CFC01FB07F010444069A5
:103B700000FB0CFC306800FB0C338C4840F827300D
:103B8000306801FB07F111444860D4E071480168D6
:103B9000896951F0010100688161CCE06D480168DC
:103BA00089694908490000688161C4E0D9F80000CA
:103BB000012832D10020009068490868D0F8040438
:103BC00030F008000A68C2F804040868D0F8040459
:103BD00010F00800009000985E4A1368802000FBF7
:103BE000073384331B6853F001031268802000FB05
:103BF000072284321360002000900868D0F8040483
:103C000050F008000A68C2F804040868D0F80404F8
:103C100010F008000090009831E0002000904F491B
:103C20000868D0F8040430F008000A68C2F80404F8
:103C30000868D0F8040410F0080000900098454A85
:103C40001368802000FB073384331B685B085B002C
:103C50001268802000FB072284321360002000904D
:103C60000868D0F8040450F008000A68C2F8040498
:103C70000868D0F8040410F0080000900098354857
:103C80000168496A51F0010100684162334800F05F
:103C9000F0FB50E03B00D9F80420D9F800102D4883
:103CA00001F094F847E001AA02A9380002F0B6F941
:103CB0001C203949D9F8002000FB07F30B44DA60D7
:103CC000D9F8042000FB07F0084402613B00019A88
:103CD0000299204801F07AF82DE03A00D9F8001056
:103CE0001C4801F0AAF826E0D9F80000002804D00A
:103CF0003900184801F01AF803E03900154801F0BE
:103D00003DF818E0D9F80000C0F30740D9F80010DA
:103D100011F47F410843D9F80010090411F47F0120
:103D2000084305003A0029000A4800F0D1FF02E0EC
:103D30005FF0FF308246504604B0BDE8F0870000D7
:103D4000103802403C5A002080B5044800F0A5F924
:103D500001BD00006C53002000680140E8590020BC
:103D600000B002400CB002403CB0024010B0024033
:103D700040B002401CB0024044B0024000020200C9
:103D800014B0024018B0024024B0024034B00240E7
:103D90000002030038B00240045A0020A534000895
:103DA0007C0000206C5C00208C000020940000202F
:103DB000565D002070C1050880BC050890000020F9
:103DC0009D33000801340008CB360008BF350008D9
:103DD000453600087800002030B4029C52EA811574
:103DE00055EA032555EA0445C56630BC70472DE900
:103DF000F84304000D0016001F00DDF8208002F0DB
:103E000021F981462068406FC00709D402F01AF9F1
:103E1000B0EB090040F2E9318842F3D3032008E017
:103E200056EA851050EA072050EA08402168C86623
:103E30000020BDE8F283F8B504000D00002C01D18C
:103E40000120CDE0607C002802D1200000F0ACFB16
:103E500003206074002000902068D0F8300450F0F7
:103E600080702168C1F830042068D0F8300410F068
:103E700080700090009802F0E5F807002068D0F804
:103E80000C04C00408D402F0DDF8C01B40F2E93194
:103E90008842F3D30320A3E02068D0F83014DFF881
:103EA000A80401402068C0F830142068D0F830041D
:103EB00029686A68D20252EA8102A96852EA01427C
:103EC00010432168C1F83004002000902068D0F829
:103ED000300450F001002168C1F830042068D0F8A7
:103EE000300410F001000090009802F0ABF80600DA
:103EF0002068D0F80C04C00508D402F0A3F8801B99
:103F000040F2E9318842F3D3032069E02068D0F819
:103F1000A00050F006002168C1F8A0002068D0F889
:103F20009400800880002168C1F894002068D0F8CF
:103F30009400616851F0010108432168C1F89400C0
:103F40002068D0F8A400800880002168C1F8A4008F
:103F50002068D0F8A410E06801432068C0F8A410DD
:103F600020688068000A00022168886020688168F3
:103F7000A0680143206881606868002801D06968F2
:103F800000E001210122287A10F00300824002FBA8
:103F900001F2DFF8B80342432B6846F2A81043430E
:103FA000B2FBF3F22068D0F818048009800123687E
:103FB000C3F818042068D0F8180410432368C3F825
:103FC000180400202368C3F8C40000202368C3F845
:103FD000C8000020A0610020606101206074002002
:103FE000F2BD1CB50400002C01D1012054E00320D7
:103FF0006074002000902068D0F8040430F00800BD
:104000002168C1F804042068D0F8040410F0080006
:104010000090009800200090206840684008400010
:10402000216848602068406810F001000090009806
:104030002068D0F8A00030F006002168C1F8A00088
:10404000002000902068D0F830044008400021682B
:10405000C1F830042068D0F8300410F0010000905E
:104060000098002000902068D0F8300430F0807074
:104070002168C1F830042068D0F8300410F0807056
:1040800000900098200001F0E3FF00206061002014
:10409000607400202074002016BD70B504002068F4
:1040A000D0F80C04C0070BD52068D0F80804C0076E
:1040B00006D501202168C1F810042000FFF759FB44
:1040C0002068D0F80C0480070BD52068D0F80804CD
:1040D000800706D502202168C1F810042000FFF7F0
:1040E00079FBA069002854D02068D0F8BC10206863
:1040F000D0F8C40001400D002068D0F8C01020683E
:10410000D0F8C80001400E00280403D0606950F0C8
:104110000100606115F4F81F03D0606950F00200DF
:104120006061F00703D5606950F004006061B0077A
:1041300003D5606950F00800606116F00C0F03D0E1
:10414000606950F010006061F00603D5606950F0BE
:1041500020006061B00603D5606950F040006061E6
:10416000700603D5606950F080006061300603D5A9
:10417000606950F48070606116F4F85F03D0606984
:1041800050F4007060616069002802D0200001F0E6
:1041900060FF70BD10B40200107C012801D1022024
:1041A00091E0012010741068406B50F0010013681A
:1041B00058631068D0F80004400840001368C3F842
:1041C00000041068D0F8000450F001001368C3F830
:1041D00000041068C068800880001368D860106808
:1041E000C368086803431068C36010684069C0086A
:1041F000C0001368586110684369CC69886904433A
:10420000486904432343106843611068006900094A
:104210000001136818611068036948680343106857
:1042200003611068D0F8000430F00E001368C3F882
:1042300000041068D0F800044B6850EA430013688B
:10424000C3F800041068406E000C00041368586640
:104250001068436E88680343106843661068D0F89E
:10426000000430F0F0001368C3F800041068D0F8C0
:104270000034CC6808690443486A0443086A04436C
:1042800023431068C0F800341068806E4008400076
:10429000136898661068836E886A034310688366A3
:1042A0001068D0F8080450F001001368C3F808043F
:1042B0001068D0F8080450F002001368C3F808042E
:1042C00000201074002010BC704710B40200107C55
:1042D000012801D1022033E0012010741068836EA0
:1042E000DFF8C0020340106883661068836E0C68B4
:1042F0004868044388680443C86804430869044361
:104300004869044388690443C8690443086A04434C
:10431000486A0443886A0443C86A04432343106814
:1043200083661068806E30F002001368986610682B
:10433000836E086B034310688366002010740020AE
:1043400010BC7047000000000386FCFF00093D0020
:104350000200107C012801D102200FE0012010741E
:104360001068C06A400940011368D8621068C06ACA
:1043700008431368D862002010740020704730B4DE
:104380000200107C012801D1022043E001201074BA
:1043900008684B68984201D24B6800E00B681068CF
:1043A000D0F8980010F0FC201468C4F89800106849
:1043B000D0F8984053EA034004431068C0F898408E
:1043C0001068D0F89C0010F400401468C4F89C00F9
:1043D0001068D0F89C000C69CD6854EA05448D68DB
:1043E00054EA056420431468C4F89C001068D0F8AF
:1043F000A40030F47F401468C4F8A4001068D0F81A
:10440000A4004C6950EA04201468C4F8A4000020F9
:104410001074002030BC704781B00100087C012876
:1044200001D1022023E001200874002000900868D8
:10443000406850F001000A6850600868406810F059
:10444000010000900098002000900868D0F8040453
:1044500050F008000A68C2F804040868D0F80404A0
:1044600010F008000090009800200874002001B0AF
:1044700070470100087C012801D102200CE00120D6
:1044800008740868D0F8040450F004000A68C2F800
:1044900004040020087400207047F8B504000D00E3
:1044A00016001F00207C012801D102200CE0012011
:1044B0002074069800903B00320029002000FFF78E
:1044C00096FC00212174C0B2F2BD2DE9F74F050022
:1044D0001E00DDF834B0287C012801D102205FE005
:1044E0000120287401F0AEFD07002868406FC00766
:1044F0000AD401F0A7FDC01B40F2E9318842F4D391
:104500000020287403204BE0DDF83090032E01D208
:10451000B04601E05FF003085FF0000AC2450AD22E
:104520001BF80A005FEACA010831884050EA09090D
:104530001AF1010AF2E72868C0F87090B6EB080497
:10454000C344002C1DD0042C01D2A04601E05FF032
:1045500004080020814600208246C2450AD21BF88A
:104560000A105046C0B2C000814051EA09091AF150
:10457000010AF2E72868C0F87090B4EB0804C3445D
:10458000DFE7701C0004000E0090731C03F0FF03B3
:10459000029A01992868FFF71FFC00202874002068
:1045A000BDE8FE8FFF80F0FE704700B1F8B5002235
:1045B0000023002400260025102D80F00D81012706
:1045C00017FA05F213000A681A4014009C4240F0E2
:1045D00001814A68012A08D04A68022A05D04A683F
:1045E000112A02D04A68122A1FD1D0F808C05FF001
:1045F000030E2A00D2B252001EFA02FE3CEA0E0C52
:10460000D1F80CE02A00D2B252001EFA02FE5EEA95
:104610000C0CC0F808C04268AF40BA434F68C7F3FB
:104620000017AF403A4316004660C7685FF0030CBE
:104630002A00D2B252001CFA02F29743D1F808E0E5
:104640002A00D2B252001EFA02FE5EEA0707C760D5
:104650004A68022A02D04A68122A1ED12A00D208C9
:1046600000EB8202166A5FF00F0E15F00702D2B25D
:1046700092001EFA02FE36EA0E06D1F810E015F09E
:104680000702D2B292001EFA02FE5EEA0606370068
:104690002A00D20800EB8202176206682A00D2B212
:1046A00052001CFA02FC36EA0C0691F804C01CF019
:1046B000030C2A00D2B252001CFA02FC5CEA060685
:1046C00006604A68D20040F18580DFF8F42217685E
:1046D00057F480471760126812F480420092009AE3
:1046E000DFF8E0C22A0092085CF822705FF00F0E3B
:1046F00015F00302D2B292001EFA02FE37EA0E074C
:10470000DFF8C422904201D1002630E0DFF8BC225D
:10471000904201D101262AE0DFF8B422904201D173
:10472000022624E0DFF8AC22904201D103261EE0ED
:10473000A94A904201D1042619E0A84A904201D129
:10474000052614E0A64A904201D106260FE0A54AAC
:10475000904201D107260AE0A34A904201D10826DF
:1047600005E0A24A904201D1092600E00A26F6B2ED
:1047700015F00302D2B29200964037432A00920805
:104780004CF822709A4E3268A243D1F804C05FEA16
:10479000CC3C00D522433260964F3E68A643D1F808
:1047A00004C05FEA8C3C00D526433E60924F3A68D5
:1047B000A243D1F804C05FEACC2C00D522433A6072
:1047C0008E4F3E68A643D1F804C05FEA8C2C00D51A
:1047D00026433E606D1CEFE6F1BD2DE9F04300235A
:1047E000002400250026102E80F0CF80012717FA24
:1047F00006F2130013EA010214009C4240F0C38049
:10480000DFF8C0E1320092085EF822205FF00F0C62
:1048100016F003085FFA88F85FEA88081CFA08F8BF
:1048200018EA02021500684A904202D15FF00008BF
:1048300037E0664A904202D15FF0010831E0644AF5
:10484000904202D15FF002082BE0624A904202D10E
:104850005FF0030825E0604A904202D15FF004084F
:104860001FE05E4A904202D15FF0050819E05C4A01
:10487000904202D15FF0060813E05A4A904202D1FA
:104880005FF007080DE0584A904202D15FF0080837
:1048900007E0564A904202D15FF0090801E05FF05C
:1048A0000A085FFA88F816F00302D2B2920018FAEA
:1048B00002F845452CD14E4AD2F8008038EA040867
:1048C000C2F800804B4AD2F8008038EA0408C2F8E7
:1048D0000080494AD2F8008038EA0408C2F8008013
:1048E000464AD2F8008038EA0408C2F8008016F080
:1048F0000302D2B292001CFA02F2150032009208B2
:104900005EF82220AA43B0465FEA98084EF82820B5
:104910005FF0030E0268B0465FFA88F85FEA480865
:104920001EFA08F832EA080202603200D20800EBF0
:1049300082083200D20800EB8202D2F8209016F0F2
:104940000702D2B292001CFA02FC39EA0C0CC8F839
:1049500020C0C268B4465FFA8CFC5FEA4C0C1EFAB9
:104960000CFC32EA0C02C2604268B74032EA070728
:10497000476087683200D2B252001EFA02FE37EA60
:104980000E0EC0F808E0761C2DE7BDE8F0830200AB
:1049900010690B009BB2184201D0012000E00020FA
:1049A000C0B270471300DBB2002B03D00B009BB2E8
:1049B000836103E00B009BB21B048361704700001E
:1049C0004438024008380140000002400004024020
:1049D00000080240000C0240001002400014024097
:1049E00000180240001C0240002002400024024047
:1049F000003C0140043C0140083C01400C3C0140AB
:104A000070B5040001F01EFB0500260016F1010F31
:104A100002D004480078361801F014FB401BB04265
:104A2000FAD370BDA902002010B410F00703DFF81C
:104A3000F44022684FF6FF010A40DFF8EC1051EA1B
:104A400003210A43226010BC7047DFF8D8000068D9
:104A5000C0F302207047010049B2002909D40122A5
:104A600010F01F018A40314903005BB25B0941F835
:104A70002320704710B4020052B2002A05D40A0164
:104A80002B4B040064B21A5508E00A01294B0400BC
:104A900064B214F00F04234403F8042C10BC7047D4
:104AA00070B4030013F00704D4F10700052801D304
:104AB000042001E0D4F10700251D072D01D20025B7
:104AC00000E0E51E012616FA00F0401E0140A94054
:104AD00016FA05F56D1E2A401143080070BC704798
:104AE00010B504002000FFF79FFF10BD2DE9F04135
:104AF00004000D0016000027FFF7A7FF80463200D4
:104B000029004046FFF7CCFF0100200040B2FFF72C
:104B1000B1FFBDE8F08110B50400200040B2FFF7FE
:104B20009AFF10BD0CED00E00000FA0500E100E086
:104B300000E400E018ED00E0F8B50400002C01D11D
:104B400001208BE094F8A100002805D1002084F812
:104B5000A000200000F06EFB022084F8A100206875
:104B6000806920F0704021688861206881696268EE
:104B7000A0680243E06802432069024311432068B1
:104B80008161DFF810042168896801402268916022
:104B90006169090422689268A3690B431A43236878
:104BA0009A602268D26802402368DA60E2691204DF
:104BB0002368DB68256A15432B432568EB6023686F
:104BC0001B69034025682B61636A1B0425682D69F6
:104BD000A66A1E4335432668356125686D692840FD
:104BE00025686861E56A2D0420684069266B2E43BC
:104BF00030432668706194F83560360294F8367058
:104C00003F042068C06A10F07F40D4F800C0CCF8A0
:104C10002C002068D0F82CC056EA070E94F8340017
:104C200050EA0E0E5EEA0C0C2068C0F82CC020681A
:104C3000406B50F00600D4F800C0CCF83400206877
:104C4000806950F00100D4F800C0CCF818000020B2
:104C5000C4F8A400012084F8A1000020F2BD10B522
:104C60000400200001F0F6F90020C4F8A4000020A0
:104C700084F8A100002084F8A000002010BD70B5C9
:104C800004000D00160094F8A000012801D10220B4
:104C90001DE0012084F8A000022084F8A100342047
:104CA00000FB06F02044383029003422FDF750FE86
:104CB00032002900200000F06FF9012021684862CD
:104CC000012084F8A100002084F8A000002070BD1D
:104CD00030B4030093F8A000012801D1022023E0A2
:104CE000012083F8A000022083F8A1001C68802026
:104CF00000FB024484341D68802000FB025584358B
:104D0000E86810F07F40E0601C68802000FB0244EF
:104D10008434E16001201C686062012083F8A100F6
:104D2000002083F8A000002030BC704710B40200BF
:104D300092F8A000012801D102201DE0012082F894
:104D4000A000022082F8A1001368802000FB01333C
:104D500084331B6853F002031468802000FB014475
:104D600084342360012013685862012082F8A10076
:104D7000002082F8A000002010BC704710B4020090
:104D800092F8A000012801D102201DE0012082F844
:104D9000A000022082F8A1001368802000FB0133EC
:104DA00084331B6833F002031468802000FB014445
:104DB00084342360012013685862012082F8A10026
:104DC000002082F8A000002010BC70472DE9F041BF
:104DD00004000D0016001F0094F8A000012801D166
:104DE000022028E0012084F8A000022084F8A1001D
:104DF000342000FB07F0204410F13808C8F80050B8
:104E0000D8F828004019C8F80400C8F80860D8F895
:104E10002C008019C8F80C003A004146200000F030
:104E2000BBF8012021684862012084F8A10000201D
:104E300084F8A0000020BDE8F081F8B504000D0062
:104E4000160094F8A000012801D102201BE00120E7
:104E500084F8A000022084F8A100342000FB06F0B2
:104E6000204410F138077D6132003900200000F045
:104E700093F8012021684862012084F8A1000020F5
:104E800084F8A0000020F2BDF8B504000D00160063
:104E900094F8A000012801D102201BE0012084F831
:104EA000A000022084F8A100342000FB06F020447A
:104EB00010F138077D6232003900200000F06CF8F4
:104EC000012021684862012084F8A100002084F8B4
:104ED000A0000020F2BDF0B5040094F8A000012865
:104EE00001D1022055E0012084F8A000022084F8BE
:104EF000A100342000FB02F02044836C002B01D180
:104F000004250EE0012B01D103250AE0042B05D076
:104F1000022B03D0032B01D0072B01D1022500E087
:104F2000012505FB01F636042768802000FB027787
:104F30008437D4F800C0802000FB02CC1CF1840C24
:104F4000DCF82C006FF31C40F862DFF8E072386880
:104F500050F001003860D4F800C0802000FB02CC83
:104F60001CF1840CD4F800E0802000FB02EE1EF15E
:104F7000840EDEF82C003043CCF82C00386850F05A
:104F800001003860012084F8A100002084F8A0000E
:104F90000020F0BD00F800F02DE9F04103004C685E
:104FA0001868C068C0F30B40041924041D688020F1
:104FB00000FB025584351E68802000FB02668436A3
:104FC000706810F4704068601D68802000FB025516
:104FD00084350E681868C068C0F30B408619761CCB
:104FE00026436E60CD681868C0684005400D4519BD
:104FF0002D041E68802000FB026684361F68802016
:1050000000FB02778437B86810F47040B0601E6807
:10501000802000FB0266843688681F68FF687F0571
:105020007F0D3818401C2843B0601E68802000FBAC
:10503000026684361F68802000FB02778437386957
:10504000C008C00030611E68802000FB0266843604
:105050000869306191F83160360291F832703F048E
:10506000D1F818C05FEA0C6CD3F800E0802000FB98
:1050700002EE1EF1840EDEF81800D3F800E0802066
:1050800000FB02EE1EF1840E0020CEF81800D3F8CB
:1050900000E0802000FB02EE1EF1840E91F830004B
:1050A000304338435CEA0000CEF81800D3F800E043
:1050B000802000FB02EE1EF1840ED3F800808020D9
:1050C00000FB028818F18408D8F81400000A0002D6
:1050D000CEF81400D3F800E0802000FB02EE1EF1B1
:1050E000840E4869CEF81400D3F800E0802000FB5D
:1050F00002EE1EF1840ED3F80080802000FB0288AF
:1051000018F18408D8F81C80494810EA0808CEF83D
:105110001C80D3F800E0802000FB02EE1EF1840E1C
:10512000D1F81C80086A50EA0808CEF81C80D3F831
:1051300000E0802000FB02EE1EF1840EDEF8280065
:10514000D3F800E0802000FB02EE1EF1840E002068
:10515000CEF82800D3F800E0802000FB02EE1EF11C
:10516000840E486ACEF828000869002801D104247A
:1051700013E00869012801D103240EE0086904281E
:1051800008D00869022805D00869032802D00869F8
:10519000072801D1022400E001241D68802000FBC3
:1051A000025584351E68802000FB02668436F06A52
:1051B00010F0E020E8621D68802000FB0255843575
:1051C0008E6A6643D1F804E00868BEEB000E04FB6B
:1051D0000EFE1EF1030E5EEA064EC5F82CE01D68B9
:1051E000802000FB025584351E68802000FB02668B
:1051F0008436306BC00AC00228631D68802000FB23
:1052000002558435C86A28631D68802000FB02555A
:1052100084352D6855F001051E68802000FB02666C
:1052200084363560BDE8F08100000000246801404C
:10523000F8F8FFFF7047C5A92DE9F84F05005FF0AA
:10524000000B0024002600275FF000082878C00724
:105250000ED5DFF8BC15086830F4000008600A6855
:10526000686B02430A60686B002801D101200700C7
:105270002868000312D5DFF89C150A6832F4401242
:10528000E86B02430A60E86BB0F5801F01D1012092
:105290000700E86B002801D1012080462868C00281
:1052A00012D5DFF870150A6832F44002286C024308
:1052B0000A60286CB0F5800F01D101200700286C2E
:1052C000002801D1012080462868C00101D50120B5
:1052D00007002878800677D5DFF83C05016851F093
:1052E00080510160006810F0805000900098DFF855
:1052F0002C95D9F8000050F48070C9F8000000F037
:10530000A1FE8346D9F80000C00507D400F09AFE3C
:10531000B0EB0B006528F5D3032077E2DFF80095AA
:10532000D9F8000010F440700400002C2CD0286B39
:1053300010F44070844227D0D9F8000030F4407057
:105340000400D9F8000050F48030C9F80000D9F802
:10535000000030F48030C9F80000C9F80040D9F8E6
:105360000000C00710D500F06DFE8346D9F800009C
:10537000800709D400F066FEB0EB0B0041F28931E2
:105380008842F3D3032041E2286B10F44070B0F55B
:10539000407F0BD1DFF878140A6832F4F8122B6BD7
:1053A000DFF8800403401A430A6005E0DFF8600478
:1053B000016831F4F8110160D9F80000296B090582
:1053C000090D0843C9F800002878C00609D5DFF8A0
:1053D0004414086830F0807008600A68A86B0243C3
:1053E0000A602868400407D5DFF83C140A6832F4E4
:1053F0004032686E02430A602868000407D5DFF86F
:1054000028140A6832F44022A86E02430A60286811
:10541000C00307D5DFF810140A6832F44012E86EB2
:1054200002430A602868800307D5DFF8FC130A6886
:1054300032F44002286F02430A602878400607D5FC
:10544000DFF8E4130A6892089200686C02430A606D
:105450002878000607D5DFF8D0130A6832F00C026E
:10546000A86C02430A602868C00507D5DFF8B813A6
:105470000A6832F03002E86C02430A60286880054E
:1054800007D5DFF8A4130A6832F0C002286D024382
:105490000A602868400507D5DFF88C130A6832F4E3
:1054A0004072686D02430A602868000507D5DFF87E
:1054B00078130A6832F44062A86D02430A602868D3
:1054C000C00407D5DFF860130A6832F44052E86D73
:1054D00002430A602868800407D5DFF84C130A6885
:1054E00032F44042286E02430A602868400207D521
:1054F000DFF834130A6832F08062A86F02430A6052
:10550000286880020DD5DFF820130A6832F00062A7
:10551000E86F02430A60E86FB0F1006F01D101202B
:1055200080462878000701D501208046286840037E
:1055300007D5DFF8F4120A6832F04072686F024350
:105540000A602868000208D5DFF8DC120A6832F029
:105550008052D5F8800002430A602868400108D5CF
:10556000DFF8C4120A6832F00052D5F88400024312
:105570000A602868000108D5DFF898120A6832F03E
:105580000072D5F8880002430A602868C00008D578
:10559000DFF880120A6832F08062D5F88C0002438E
:1055A0000A60012F04D02868B0F1007F40F0998094
:1055B000DFF878A2DAF8000030F08060CAF8000066
:1055C00000F040FD8146DAF80000000107D500F048
:1055D00039FDB0EB09006528F5D3032016E12878E2
:1055E000C00716D5686B002813D1DFF844020168A4
:1055F000C1F301410C000168C1F303610E00696849
:10560000220452EA811252EA0662A96852EA017241
:1056100002602868000303D5E86BB0F5801F06D050
:105620002868C00220D5286CB0F5800F1CD1DFF8A7
:1056300000020168C1F301410C000168C1F302716D
:105640000E006968220452EA8112E96852EA016296
:1056500052EA06720260DFF8BC010168490949019B
:105660006A6A521E114301602868C00113D5DFF831
:10567000C0010168C1F303610C000168C1F302714C
:105680000E0069682A69120452EA811252EA046221
:1056900052EA06720260286880010DD5686829699F
:1056A000090451EA8011E86851EA0061A86851EAEA
:1056B0000071DFF87C010160DAF8000050F08060D2
:1056C000CAF8000000F0BEFC8346DAF800000001D2
:1056D00007D400F0B7FCB0EB0B006528F5D303202E
:1056E00094E0B8F1010F40F09080DFF840A1DAF8C3
:1056F000000030F08050CAF8000000F0A3FC8146A2
:10570000DAF80000800007D500F09CFCB0EB09003F
:105710006528F5D3032079E02868000302D5E86BFB
:10572000002805D02868C00220D5286C00281DD18B
:10573000DFF800010168C1F301410C000168C1F309
:1057400002710E006969220452EA8112A96952EAC3
:10575000016252EA06720260DFF8B800016831F4B3
:10576000F851AA6A521E51EA02210160286880029B
:1057700017D5E86FB0F1006F13D1DFF8B8000168FA
:10578000C1F303610C000168C1F302710E00696985
:105790002A6A120452EA811252EA046252EA06723A
:1057A0000260287800071BD5DFF888000168C1F384
:1057B00003610C000168C1F301410E006969320404
:1057C00052EA811252EA0462E96952EA0172026005
:1057D000DFF840100A6832F44032E86A02430A6097
:1057E000DAF8000050F08050CAF8000000F02AFCFF
:1057F0008346DAF80000800007D400F023FCB0EB09
:105800000B006528F5D3032000E00020BDE8F28FEF
:10581000083802408C380240403802400070004096
:1058200070380240FFFCFF0F903802400038024001
:1058300084380240883802402DE9F34F81B0DFF808
:10584000844321000020FDF721FBDFF87C130320B7
:10585000FDF71CFBDFF8745329000020FDF716FB51
:10586000DFF86C130220FDF711FB29000020FDF783
:105870000DFBDFF860130020FDF708FB0A2000F0A5
:10588000DBFDDFF854130020FDF700FBD3490020B7
:10589000FDF7FCFA0A2000F0CFFDD1490020FDF70A
:1058A000F5FAD0490020FDF7F1FACF490020FDF7C5
:1058B000EDFACE4F39000020FDF7E8FACC49002080
:1058C000FDF7E4FACB490020FDF7E0FA21000020C3
:1058D000FDF7DCFAC8490020FDF7D8FAC74E3100C1
:1058E0000020FDF7D3FAC6490020FDF7CFFADFF814
:1058F000148341460020FDF7C9FAC3490020FDF793
:10590000C5FAC2490020FDF7C1FAC1490020FDF7E0
:10591000BDFAC0490020FDF7B9FA39000020FDF7B3
:10592000B5FA21000020FDF7B1FABB490220FDF7CE
:10593000ADFABA490020FDF7A9FAB9490020FDF7F0
:10594000A5FAB8490020FDF7A1FAB7490020FDF7F4
:105950009DFAB6490020FDF799FAB5490020FDF7F8
:1059600095FA31000020FDF791FAB2490020FDF7C9
:105970008DFA41460020FDF789FAAF490020FDF776
:1059800085FAAE490020FDF781FAAD490220FDF706
:105990007DFA29000020FDF779FAAA490620FDF7D3
:1059A00075FAA94F39000020FDF770FAA7490E20BB
:1059B000FDF76CFADFF8988241460020FDF766FAA1
:1059C000A4490E20FDF762FADFF88C9249460020C8
:1059D000FDF75CFAA1490A20FDF758FADFF880A22A
:1059E00051460020FDF752FA9E490020FDF74EFA7D
:1059F00029000020FDF74AFA9B490A20FDF746FAE4
:105A0000DFF868B259460020FDF740FA98490F20A8
:105A1000FDF73CFA39000020FDF738FA95490F20D0
:105A2000FDF734FA41460020FDF730FA92490A208A
:105A3000FDF72CFA49460020FDF728FA8F490F2080
:105A4000FDF724FA51460020FDF720FA8C490F207B
:105A5000FDF71CFA8B490020FDF718FA8A490A2045
:105A6000FDF714FA89490020FDF710FA88490A2049
:105A7000FDF70CFA29000020FDF708FA85490A20F5
:105A8000FDF704FA59460020FDF700FA82490F207D
:105A9000FDF7FCF939000020FDF7F8F97F490F20E8
:105AA000FDF7F4F941460020FDF7F0F97C490A20A2
:105AB000FDF7ECF949460020FDF7E8F979490F2098
:105AC000FDF7E4F951460020FDF7E0F976490F2093
:105AD000FDF7DCF931000020FDF7D8F9734900200B
